:020000040000FA
:1000000050110020A11C0000F1450000751C0000EB
:10001000751C0000751C0000751C0000751C00009C
:100020000000000000000000000000007D1900003A
:10003000751C000000000000751C0000751C00000D
:10004000D9190000D9190000D9190000D9190000E8
:10005000D9190000D9190000D9190000D9190000D8
:10006000D9190000D9190000D9190000D9190000C8
:10007000D9190000D9190000D9190000D9190000B8
:10008000D9190000D9190000D9190000D9190000A8
:10009000D9190000D9190000D9190000D919000098
:1000A000D9190000D9190000D9190000D919000088
:1000B000D9190000D9190000D9190000D919000078
:1000C000D9190000D9190000D9190000D919000068
:1000D000D9190000D9190000D9190000D919000058
:1000E000D9190000D9190000D9190000D919000048
:1000F000D9190000D9190000D9190000D919000038
:10010000D9190000D9190000D9190000D919000027
:10011000D9190000D9190000D9190000D919000017
:10012000D9190000D9190000D9190000D919000007
:10013000D9190000D9190000D9190000D9190000F7
:10014000D9190000D9190000D9190000D9190000E7
:10015000D9190000000000000000000000000000AD
:10016000000000000000000000000000000000008F
:10017000000000000000000000000000000000007F
:10018000000000000000000000000000000000006F
:10019000000000000000000000000000000000005F
:1001A000000000000000000000000000000000004F
:1001B000000000000000000000000000000000003F
:1001C000000000000000000000000000000000002F
:1001D000000000000000000000000000000000001F
:1001E000000000000000000000000000000000000F
:1001F00000000000000000000000000000000000FF
:10020000DEE61E284CBBCE8F02350000EC0000005D
:10021000045C00000100000000000000000000007D
:10022000FFFF02910000000000000000000000003D
:10023000000000000500000000000000DEE61E28AF
:10024000EAAC45B8023500002000000003100000B1
:1002500001000000010000007D490000DEE61E28CC
:10026000EAAC45B802350000300000000210000082
:100270000000000001000000AF490000C14900007B
:10028000D7490000AD480000C8000000DEE61E2887
:10029000EAAC45B802350000200000000110000063
:1002A000020000000100000043490000DEE61E28B5
:1002B000EAAC45B802350000200000000111000042
:1002C00003000000010000000F4A0000DEE61E28C7
:1002D000EAAC45B802350000200000000012000022
:1002E0000000000001000000692A000053B94AB96B
:1002F000002908BF00281CBF4FF0FF314FF0FF302E
:1003000000F00CB8ADF1080C6DE904CE00F0D4FC9F
:10031000DDF804E0DDE9022304B07047704700BF58
:100320002DE9F00791E8F807B2E802105B1854EBEA
:100330000C04B2E802104D4156EB0C06B2E8021074
:100340004F4158EB0C08B2E8021059EB01095AEB87
:100350000C0A80E8F80780410130BDE8F0077047DB
:100360002DE9F00791E8F807B2E802105B1A74EB88
:100370000C04B2E802108D4176EB0C06B2E80210D4
:100380008F4178EB0C08B2E8021079EB01097AEBA7
:100390000C0A80E8F80780414042BDE8F00770474A
:1003A0002DE9F007524290E87800B1E88007174045
:1003B000DB1918EA020854EB080419EA020955EBA4
:1003C00009051AEA020A56EB0A0678C090E8780096
:1003D000B1E8800717407B4118EA020854EB080493
:1003E00019EA020955EB09051AEA020A56EB0A0650
:1003F00078C080410130BDE8F00770472DE9F00773
:10040000524290E87800B1E880071740DB1B18EAF9
:10041000020874EB080419EA020975EB09051AEAE7
:10042000020A76EB0A0678C090E87800B1E8800707
:100430001740BB4118EA020874EB080419EA0209E4
:1004400075EB09051AEA020A76EB0A0678C08041C4
:100450004042BDE8F00770472DE9F00152424FF0ED
:10046000040890E8300091E8C000A31B1340E41A90
:10047000F618EB1B1340ED1AFF1830C0C0C1B8F1DD
:100480000108EED1BDE8F001704700BF00B592E869
:10049000DC072DE9DC07B1E8805702B4A7FB025165
:1004A0000A95A8FB020BE7FB6310E9FB62B00B9116
:1004B000A8FB0351EAFB6201E7FB64B5E7FB6605B5
:1004C000E8FB6615CDF830B0A9FB03B6EAFB63166E
:1004D000ECFB6356E8FB640BE9FB641BEAFB645B23
:1004E000ECFB646B0D90ACFB0230059CEEFB6250A4
:1004F000E9FB6460EAFB64B0E7FB6431E8FB64514C
:10050000069CE8FB6461E9FB64B1EAFB64010E93BD
:10051000A7FB0432079CE7FB6462E8FB64B2E9FBDB
:100520006402EAFB6412049CE9FB6453EAFB646323
:10053000089CE7FB64B3E8FB6403E9FB6413EAFB94
:1005400064230F955DF8049B99E80006DDF80080B0
:10055000A9FB0854EAFB68B4DDF81080ECFB6804E2
:10056000EEFB6814E9FB6824EAFB6834DDF80480DC
:10057000EEFB6865E9FB68B5EAFB6805DDF8148009
:10058000ECFB6815EEFB6825E9FB6835EAFB68457E
:100590000F96DDF80880AEFB0876E9FB6806EAFBFB
:1005A0006816DDF81880ECFB6826EEFB6836E9FB80
:1005B0006846EAFB6856DDF80C80ECFB68B7EEFB9A
:1005C0006807E9FB6817EAFB6827DDF81C80ECFB8D
:1005D0006837EEFB6847E9FB6857EAFB686708B0D5
:1005E00000BD00BF2DE9F14F87B0FFF74FFFDDF8E9
:1005F0001C8008F1200888E8FF00FFBC87E87F081E
:10060000BDE8F08F00B591E89857A3FB0352019520
:10061000A3FB0401E3FB6420E3FB67100292A3FB4E
:100620000752E3FB6802E4FB6415E3FB6805E3FBA8
:1006300069250391A4FB07B6E3FB6926E3FB6A5631
:10064000E4FB670BE4FB682BE3FB6A5BE3FB6C6B8F
:100650000490A4FB0810E4FB6950E3FB6C60E3FB2F
:100660006EB0E7FB6721E4FB6951E4FB6A61E3FBE1
:100670006EB1E4FB6E010592A7FB0832E4FB6A62EF
:10068000E4FB6CB2E4FB6E02E7FB6E12E7FB68531F
:10069000E7FB6963E4FB6CB3E7FB6C03E7FB6E13FA
:1006A000E8FB6E230695A7FB0954E7FB6AB4E7FB5A
:1006B0006C04E8FB6C14E8FB6E24E9FB6E34E8FB89
:1006C0006865E7FB6AB5E8FB6A05E8FB6C15E9FBC2
:1006D0006C25E9FB6E35EAFB6E450796A8FB0976AB
:1006E000E8FB6A06E9FB6A16E9FB6C26EAFB6C3656
:1006F000EAFB6E46ECFB6E56E8FB69B7E9FB69075F
:10070000E9FB6A17EAFB6A27EAFB6C37ECFB6C47EC
:10071000ECFB6E57EEFB6E6700BD00BF2DE9F14F9D
:1007200087B0FFF76FFFDDF81C8008F1200888E82C
:10073000FF00FFBC87E87F08BDE8F08F30B44FF0C2
:10074000000310F8014B11F8015B013A84EA05043B
:1007500043EA0403F5D1A3F101034FEAD37030BC9F
:10076000704700BF4FF0000310F8012B013943EA36
:100770000203F9D1A3F101034FEAD370704700BF20
:1007800030B411F8014B12F8015B6C4000F8014BDA
:10079000013BF6D130BC70472DE9F00791E8F8072E
:1007A000B2E802105B1854EB0C04B2E802104D41A1
:1007B00056EB0C06B2E802104F4158EB0C08B2E8B9
:1007C000021059EB01095AEB0C0A8941B3F1FF33CE
:1007D00074F1FF3475F1FF3576F1000677F100070B
:1007E00078F1000879F101097AF1FF3A51F100013D
:1007F0005B184C414D4156F1000657F1000758F186
:10080000000859EBD1795AEB010A80E8F807BDE8F6
:10081000F00770472DE9F00791E8F807B2E80210F9
:100820005B1A74EB0C04B2E802108D4176EB0C06F7
:10083000B2E802108F4178EB0C08B2E8021079EBB5
:1008400001097AEB0C0A89415B184C414D4156F184
:10085000000657F1000758F1000859EBD1795AEB1F
:10086000010A80E8F807BDE8F007704718EB0408B4
:1008700059EB05095AEB060A5BEB070B5FF0000C1E
:100880004CF1000C18EB050859EB06095AEB070A66
:100890005BEB070B50EB0C005FF0000C51EB0C0115
:1008A00052EB0C0263414CF1000CB8EB070879F1F4
:1008B00000097AF1000A7BEB040BA841B141A24187
:1008C000B3416CF1000CBBEB050BB041B941AA413F
:1008D000BB416CF1000C4CF001068CF0020718EBE8
:1008E000060859EB6C095AEB6C0A7BEB6C0B70EB4E
:1008F0006C0471EB6C0572EB670653EB6C076CEBE9
:100900006C0C18EB0C0059EB0C015AEB0C025BF170
:10091000000354F1000455F1000556EBDC7657EB6B
:100920000C0770472DE9F14F87B0FFF7AFFDDDF8F9
:100930001080DDF81490DDF818A0FFF797FFBDE8F0
:10094000000FFFF793FF03B05DF8048B88E8FF000A
:10095000BDE8F08F2DE9F14F87B0FFF753FEDDF8CA
:100960001080DDF81490DDF818A0FFF77FFFBDE8D8
:10097000000FFFF77BFF03B05DF8048B88E8FF00F2
:10098000BDE8F08F2DE9F04F90E8F00F00F1400046
:100990004FF0040E59E0F0B4826BC36B0468052578
:1009A000242687593C444FEA724787EAF24787EA90
:1009B00092273C4442684FEAF21787EAB24787EA37
:1009C000D2073C4440F8044B032D08BF6FF01B06D0
:1009D00087593A444FEA734787EAF34787EA9327F0
:1009E0003A4443684FEAF31787EAB34787EAD307E5
:1009F0003A4440F8042B87593B444FEA744787EA4E
:100A0000F44787EA94273B4444684FEAF41787EA9F
:100A1000B44787EAD4073B4440F8043B013DC0D1CA
:100A2000A0F13C00076A3C444FEA724787EAF2476C
:100A300087EA92273C4402684FEAF21787EAB247F6
:100A400087EAD2073C44C463F0BC4FF0020288EA54
:100A5000781C8CEAF84C0BEBBC1C8AEA090303EA0D
:100A6000080383EA0A039C4450F8043B9C4451F871
:100A7000043B9C44674444EA050B0BEA060B04EA7A
:100A800005034BEA030BE34484EAF42383EA34537B
:100A90000BEBB30B87EA771C8CEAF74C0AEBBC1C18
:100AA00089EA080303EA070383EA09039C4450F830
:100AB000043B9C4451F8043B9C4466444BEA040AC2
:100AC0000AEA050A0BEA04034AEA030AE2448BEA4B
:100AD000FB2383EA3B530AEBB30A86EA761C8CEAD3
:100AE000F64C09EBBC1C88EA070303EA060383EA19
:100AF00008039C4450F8043B9C4451F8043B9C443C
:100B000065444AEA0B0909EA04090AEA0B0349EABF
:100B10000309E1448AEAFA2383EA3A5309EBB30969
:100B200085EA751C8CEAF54C08EBBC1C87EA0603C9
:100B300003EA050383EA07039C4450F8043B9C4402
:100B400051F8043B9C44644449EA0A0808EA0B084B
:100B500009EA0A0348EA0308E04489EAF92383EA38
:100B6000395308EBB30884EA741C8CEAF44C07EBA5
:100B7000BC1C86EA050303EA040383EA06039C44DB
:100B800050F8043B9C4451F8043B9C44E34448EA3D
:100B9000090707EA0A0708EA090347EA030767445F
:100BA00088EAF82383EA385307EBB3078BEA7B1C08
:100BB0008CEAFB4C06EBBC1C85EA040303EA0B033E
:100BC00083EA05039C4450F8043B9C4451F8043BE1
:100BD0009C44E24447EA080606EA090607EA0803D5
:100BE00046EA0306664487EAF72383EA375306EBAF
:100BF000B3068AEA7A1C8CEAFA4C05EBBC1C84EA40
:100C00000B0303EA0A0383EA04039C4450F8043B01
:100C10009C4451F8043B9C44E14446EA070505EA3C
:100C2000080506EA070345EA0305654486EAF62354
:100C300083EA365305EBB30589EA791C8CEAF94C53
:100C400004EBBC1C8BEA0A0303EA090383EA0B03E7
:100C50009C4450F8043B9C4451F8043B9C44E044C1
:100C600045EA060404EA070405EA060344EA030425
:100C7000644485EAF52383EA355304EBB304013A6F
:100C80007FF4E5AEA0F14000BEF1010E7FF483AE2B
:100C9000A0F1400C9CE80F00001949199219DB19CA
:100CA000ACE80F009CE80F004044494452445B44C8
:100CB000ACE80F00BDE8F08F2DE9F04786468C4682
:100CC0000846089E154674461946002B40F0C18020
:100CD0008542B2FA82F245D94AB1C2F1200300FA44
:100CE00002FC954094402EFA03F343EA0C0C4FEAC1
:100CF000154EA8B2230CBCFBFEF80EFB18CC08FB6B
:100D000000F943EA0C43994528D9EB1808F1FF375D
:100D100004D2994502D9A8F102072B44A3EB090399
:100D2000A4B2B3FBFEFC0EFB1C330CFB00F044EA48
:100D30000344A04214D92C190CF1FF3304D2A04271
:100D400002D9ACF102032C44241A43EA07401EB135
:100D5000D440002334607360BDE8F0874746DDE788
:100D60006346F1E792BB431B01214FEA154EAFB238
:100D7000200CB3FBFEFC0EFB1C330CFB07F840EA17
:100D80000343984561D9EB180CF1FF3004D2984524
:100D900002D9ACF102002B44A3EB0803A4B2B3FBCD
:100DA000FEFC0EFB1C330CFB07F744EA0344A7428E
:100DB0004DD92C190CF1FF3304D2A74202D9ACF162
:100DC00002032C44E41B43EA0040C0E7C2F12003C5
:100DD0009540944020FA03F12EFA03F34FEA154EA2
:100DE0009040AFB20343B1FBFEFC0EFB1C10190C8C
:100DF0000CFB07F841EA0041884522D969180CF13B
:100E0000FF3004D2884502D9ACF102002944A1EB9D
:100E100008019BB2B1FBFEFC0EFB1C110CFB07F79B
:100E200043EA01439F420ED9EB180CF1FF3104D283
:100E30009F4202D9ACF102012B44DB1B41EA004185
:100E400093E76046E3E76146F7E76046A4E7634659
:100E5000B8E7834206D916B9002108467CE7C6E9FF
:100E600000E0F9E7B3FA83F78FB9834201D3724503
:100E700008D8BEEB020460EB030301209C461EB9B8
:100E8000002169E73846FAE7C6E9004CF8E7C7F100
:100E9000200CBB400EFA07F522FA0CF42EFA0CF1E6
:100EA000BA401C4320FA0CF3B8404FEA14490143FE
:100EB0001FFA84FEB3FBF9F809FB18300B0C08FB92
:100EC0000EFA43EA00439A4540D9E31808F1FF308F
:100ED00004D29A4502D9A8F102002344A3EB0A03E5
:100EE00089B2B3FBF9F809FB183308FB0EFE41EA9F
:100EF00003418E452CD9611808F1FF3304D28E4589
:100F000002D9A8F10203214443EA0040A1EB0E01FB
:100F1000A0FB02984145CE46434602D306D14D453B
:100F200004D20138B9EB020E68EB0403002EA7D0FF
:100F3000B5EB0E0261EB030101FA0CFC22FA07F398
:100F4000F9404CEA0303C6E9003199E74046C5E79A
:100F50004346D9E72DE9F0430746002685B0DFF880
:100F60003490DFF8348001AD59F8044B98E807005D
:100F70003C4485E807000C222946204603F04FFB3D
:100F800000B91CB90136052EEED10024204605B06B
:100F9000BDE8F083485100000051000037B5044619
:100FA0001E480D4603F09CFA2CB91D4803B0BDE85D
:100FB000304003F095BAA1691A4803F091FA21462E
:100FC000A06903F032FD40B9174803F089FA2046C2
:100FD00003B0BDE8304001F009BE1448616903F078
:100FE0007FFA0DF1060003F000FD40B1104803F058
:100FF00077FA104803F074FA0023ADF80630606900
:10100000BDF80630984203D9294680B201F0D2FAE1
:10101000204601F04BFA03B030BD00BF6C54000015
:101020008A540000A5540000CD540000FD54000077
:10103000135500003B55000070B54FF400410020EF
:1010400001F016FA064620B1134803F049FA0020D1
:1010500070BD01F095FC044601F098FC0546204661
:10106000FFF778FF04462846FFF774FF054618B1DE
:10107000626943699A4209D300212046FFF78EFF37
:1010800001212846FFF78AFF0448DEE70121FFF728
:1010900085FF31462046F5E77E550000AC5500003F
:1010A000014B1B68184700BF00000020014B18606F
:1010B000704700BF0000002007B50B460021024624
:1010C0000091034800F006F803B05DF804FB00BF90
:1010D000A11000002DE9F04F81468B4617461C46B3
:1010E000002595B0387808B9284657E37B1C252899
:1010F000039306D05946C8470028C0F24F830135F4
:10110000FBE1182200210EA803F0A4FA7B78252B1E
:101110007DD0002398469E469C461E46781C01467C
:1011200010F8012B2B2A00F0A18000F29880202AD1
:1011300000F09F80232A00F09F802BB19DF8403063
:1011400043F040038DF84030B8F1000F05D09DF812
:10115000403043F020038DF84030BEF1000F05D041
:101160009DF8403043F010038DF84030BCF1000F83
:1011700005D09DF8403043F008038DF840302EB183
:101180009DF8403043F004038DF840309DF8403026
:1011900003F04400442803D16FF386138DF84030E8
:1011A0009DF840302A2A43F080038DF840307FD1EB
:1011B0009DF841204B1C42F001028DF841201A7825
:1011C0002E2A0CBF012100219DF8412061F341022C
:1011D0008DF8412078D15A782A2A6ED000224FF01B
:1011E0000A0C0133194611F8010BA0F13006092E43
:1011F00040F295809DF840101292C1F3400040EA01
:10120000D2700A4660F341028DF840205CE0BA1CBF
:1012100003928DF843309DF84130DA0740F12E817A
:1012200054F8048BB8F1000F07DA9DF84020C8F19C
:10123000000842F004028DF840205E0740F127814B
:1012400054F804ABBAF1000F80F226819DF84130CA
:101250006FF341038DF841304FF0FF3A1CE12D2A26
:101260000DD0302A7FF469AF012358E74FF0010C0D
:1012700055E74FF0010E52E74FF001084FE7012606
:101280004DE703460EFB0262303A184610F8016B38
:10129000A6F1300CBCF1090FF3D999428FD09DF81B
:1012A00040101192D20F62F341018DF8401086E791
:1012B0000B4600224FF00A0EE7E79DF8412002336B
:1012C00042F004028DF841201A786C2A47D02BD8BE
:1012D000682A31D06A2A4BD04C2A51D01A4612F8CB
:1012E000013B782B03928DF843309DF8412000F2AA
:1012F000BE806D2B51D8692B00F2B980572B67D86F
:10130000412B03D0453B022B00F2B18004229DF813
:10131000423062F302038DF84230012373E00CFB8C
:1013200002020B46303A5DE7742A25D07A2AD5D1DD
:1013300006219DF841200CE05A78682A9DF841204A
:1013400006D1012161F3C6028DF841200233C5E7C1
:10135000022161F3C6028DF841200133BEE75A78BD
:101360006C2A9DF8412001D10421EBE70321F0E72D
:1013700005219DF84120ECE707219DF84120E8E791
:10138000BDF8402022F4F04222F0020242F48042F2
:1013900042F00202ADF84020DFE76E3BD9B20123F4
:1013A0008B4040F282410B4237D113F0240F51D1D0
:1013B000D8075CD503219DF8423061F302038DF814
:1013C000423002F07803A3F140014B424B411AE056
:1013D0000120A3F15801C9B200FA01F111F4624FE2
:1013E00094D140F6010631421DD111F4043F3ED0A4
:1013F0009DF8423060F3020302F07802402A8DF833
:10140000423034D000239DF84020C2F340010B430A
:1014100063F341028DF84020FDE602219DF8423041
:1014200061F30203E8E702209DF8421002F078021F
:1014300060F30201402A8DF8421002BF9DF840106F
:1014400041F001018DF84010632BDBD1131E18BF52
:101450000123D8E703219DF8423012F0780F61F3A1
:1014600002038DF8423014BF01230023CBE79DF81F
:10147000403043F001038DF84030C3E79DF9402030
:10148000002AACBF4FF0FF38DDF84480D5E698075E
:101490007FF5E2AEDDF848A00023CDE911339DF8D9
:1014A00042309DF8411003F00703012BC1F3C30143
:1014B00033D1CB1E042B04D8DFE803F021464621AC
:1014C0002100236801294FEAE372CDE90E321CD1D5
:1014D0009DF93830DA17CDE90E3204349DF84030EA
:1014E00013F0030650D03A4659464846039B03F092
:1014F0005DF80028C0F252810544039FF2E554F8DC
:10150000043BDA17CDE90E32E8E70229E5D11AB239
:1015100043F3C033CDE90E23DFE7022B24D1CB1EEA
:10152000042B04D8DFE803F0181010181800012964
:101530004FF0000254F8043B14D00229CDE90E32DA
:10154000CCD19BB20E93C9E7073424F00704F4E82A
:101550000223CDE90E23C1E754F8043B0E93002388
:101560000F93BBE7DBB2CDE7042B08D1073424F09F
:101570000704D4E900230834CDE90E23AEE7032B9A
:10158000ACD154F8043BDDE79DF843007828B4D88B
:1015900062281CD825283FF4ADAD5828ADD1DDE92F
:1015A0000E010DF13603009310AA08AB02F0B8FF4C
:1015B000BAF1000F074680F29980002F9DD00DF1FF
:1015C0003603D81B002E00F0C0800130BDE0633828
:1015D000152892D801A252F820F000BFB1160000E1
:1015E000C3160000FB140000FB140000FB140000F5
:1015F000FB140000C3160000FB140000FB140000E5
:10160000FB140000FB1400004F170000E716000059
:101610000D170000FB140000FB140000351600003D
:10162000FB140000E7160000FB140000FB14000090
:10163000E7160000BAF1000F0E9F35DB5146384621
:1016400002F0E4FF07EB000A002F3FF456AF00263C
:101650009DF8423013F01002059200F092800230A3
:101660005B06119A48BF129B104448BFC018B8F1DE
:10167000000F049240F39F809DF84020A8EB0008E3
:10168000C2F380035007069300F19580510640F1A4
:1016900088803EB159463046C84700287EDB069B0D
:1016A00001351E4630227DE0384602F0A8FFC9E72A
:1016B0000E9B002601208DF8203008AF0DF1210A85
:1016C000C6E719075ABFC3F300135E012B26DDE9F5
:1016D0000E23002BBFF663AF524263EB43032D266C
:1016E000CDE90E235BE7002659E700269DF8402050
:1016F0000DF13603DB1B6FF386129A458DF84020FF
:101700007FF65BAFAAEB0303119356E70E9890B3F5
:101710000DF136030093002108AB10AA02F000FF80
:10172000BDF84230BAF1000F03F0EF0343F4F04389
:1017300043F010030746ADF84230D6DA00283FF4F4
:10174000DCAE00260DF13603181A9A4680E70E9B90
:1017500007293FF6D2AEDFE801F00C04060C0808BA
:101760000C0C1D70C9E61D80C7E6EA17C3E90052DC
:10177000C3E61D60C1E62F4F064607F1050A0520A6
:1017800066E71A0748BF01306AE7104607930692DA
:101790005946C847DDE90623002804DA15B0BDE83C
:1017A000F08F202243461946002903F1FF33ECDC79
:1017B000454498466D1A2EB159463046C847002810
:1017C000ECDB01359DF84230DA0601D41B0705D564
:1017D00059463020C8470028E0DB0135059B33B16E
:1017E00059469DF84300C8470028D7DB0135049EC1
:1017F0002E4405E059463020C8470028CEDB01358D
:10180000731B002BF6DC53463A465946484602F015
:10181000CDFE0028C2DB0544A844A8EB0503002B3D
:101820007FF76BAE59462020C8470028B6DB01354C
:10183000F3E700BFE7550000054B03EB8000D0F84D
:10184000003223F0E04343F04053C0F800327047C9
:101850000025845010B54FF02003EFF3118483F37B
:101860001288BFF36F8F01220C4B0D49C3F800257E
:1018700002230020C1F8D036FFF7DEFF1046FFF745
:10188000DBFFC1F80427C1F80429C1F8002B84F359
:101890001188BFF36F8F002010BD00BF00100050F3
:1018A0000040005048B1054B054A1B68B3FBF2F3FA
:1018B0005843044B43F001031847704724000020AD
:1018C00040420F004051000001F0B0B90149102220
:1018D0000A60704710ED00E040B2002807DB0123EA
:1018E0004109034A00F01F00834042F8213070474D
:1018F00000E100E0054B420953F82220012300F0EB
:101900001F0003FA00F01040704700BF00E100E044
:1019100040B2002801F10101ACBF00F16040064B6C
:101920004FEA4111C9B2ABBF00F5614000F00F00B2
:1019300080F800131954704714ED00E030BFFFF732
:10194000FDBF00BF0B4A08B50B4B22F07F029A6027
:10195000BFF34F8FBFF36F8FD3F8882022F470024C
:10196000C3F8882001F030FB01F072FB00F08CF925
:1019700001F036FB0000000000ED00E01EF0040F57
:101980000CBFEFF30880EFF30980816911F8021CA6
:101990000229FFD001B502F023FE01BD044608462E
:1019A00011461A46002383F30B880A4B2025A3F522
:1019B000006686F30B8883F3098863B64FF0000353
:1019C00083F31188BFF36F8FA04785F31188BFF3AE
:1019D0006F8FFEE75011002001B5EFF30580A0F1F5
:1019E00010004FEAC0000449014409C99847BDE806
:1019F0000140024908470000884E0000011A00001B
:101A0000704700BF154B9A6A12F0007F9A6A14BFA4
:101A10001E201D2012F0807F9A6A18BF1F2012F42A
:101A2000801F9A6A18BF022012F4002F9A6A18BF0A
:101A3000212012F4802F9A6A18BF222012F4003F4E
:101A40009A6A18BF232012F4803F9A6A18BF242094
:101A50006FEA02426FEA12429A62704700ED00E0BC
:101A600010B5194B0246986A9C6A10F4805F14BF47
:101A70001720162014F4006F9C6A18BF1820A405C4
:101A800009D5986B986A000404D51AB19A6A22F4B1
:101A900000429A6219200C4B9A6A12F4806F9A6A7B
:101AA00018BF1A20D2050CD49B6A13F4005F18BF2C
:101AB0001C20054A936A43F47F43936200230B7012
:101AC00010BD1B20F5E700BF00ED00E010B51C4B7A
:101AD0000246986A9C6A10F0100F14BF1120102063
:101AE00014F0080F9C6A18BF1220A40709D5586B80
:101AF000986A000604D51AB19A6A22F080029A62A6
:101B000013200F4B9A6A12F0010F9A6A18BF142023
:101B100012F0200F9A6A18BF1520D40658BF9B6A8E
:101B2000074B9A6A920642BF5A6A22F400525A62DE
:101B30009A6A42F0FF029A6200230B7010BD00BF48
:101B400000ED00E070B5444B06465B6800258AB0A6
:101B5000C3F3080385F31188BFF36F8F02F07F4052
:101B6000B0F17F4F11D102F00C0008280DD0100702
:101B70004CBF0E4601250022033B8DF80720032BA6
:101B800005D8DFE803F01E5C60592E46F3E7002419
:101B90009DF807309BB92022314602A802F04FFD84
:101BA000099B002D53D0C3F3080222B96FEA5323D7
:101BB0006FEA43230993204602A902F00FFD0AB001
:101BC00070BD254BDA6A9107E1D4DA6A002ADEDBC0
:101BD000DA6A5200DBD55A69B16942F480725A61FF
:101BE000BFF34F8FBFF36F8F5A6931F8021C22F495
:101BF00080725A61BFF34F8FBFF36F8F4DF6027241
:101C0000914209D09A6AD2B242B101200DF1070186
:101C1000FFF75CFF0446BBE73468B9E79A6A12F441
:101C20007F4F05D001200DF10701FFF719FFF1E704
:101C30009B6AB3F5803FAAD3FFF7E4FEEAE70020F2
:101C40000DF10701E4E700200DF10701EDE723F4B2
:101C5000FF7323F00103ADE700ED00E0044B5A6988
:101C600042F010025A615A6942F480625A61704728
:101C700000ED00E0EFF30880EFF3098101B5724653
:101C8000FFF760FF01BD00BF002320210348C218F9
:101C90000133452B82F80013F9D1704700E100E0D1
:101CA000002080F31488BFF36F8F002080F30A8830
:101CB00080F30B88FFF708FE00200E490860BFF391
:101CC0004F8F0D4880F3088800F03EF8202080F305
:101CD00011880A484FF40061401880F30988EFF337
:101CE00014800221084380F31488BFF36F8FFFF73D
:101CF00029FE000094ED00E050110020500100206A
:101D0000BFF34F8F0549064BCA6802F4E0621343E4
:101D1000CB60BFF34F8F00BFFDE700BF00ED00E0D9
:101D20000400FA05002318460649D1F89020C2F3B2
:101D30000722934200DB7047C1F89830C1F8A00039
:101D40000133F6E700ED00E010B572B6002484F32D
:101D50001388FFF7E7FF23464FF0FF300C4A03F1EB
:101D600020010133102B42F82100F8D100234FF05D
:101D7000FF30074A03F160010133102B42F82100C4
:101D8000F8D162B6BFF34F8FBFF36F8F10BD00BFA6
:101D900000E100E0014B1860704700BF0400002024
:101DA000084B70B5C31A0D4607499B1004465943AA
:101DB0004022064802F076FC2B4601462046BDE84C
:101DC0007040184730000020B76DDBB6584E000059
:101DD000402373B50B4C0093041B0B460D460A4978
:101DE000A41061430646094A094802F088FC011E16
:101DF00005DA30462B4602B0BDE87040184702B005
:101E000070BD00BF30000020B76DDBB67147000029
:101E1000584E000010B54FF02003EFF3118483F308
:101E20001288BFF36F8F074A136823F00201DB07A4
:101E3000116002D4012002F09FFF84F31188BFF3E8
:101E40006F8F10BDD00000202DE9F8430022012142
:101E500006460520FFF75CFD114800F0E5FF114B39
:101E6000984219D102F017FF00244FF01C090C27EB
:101E7000DFF834803569414609FB045002F03DFB30
:101E8000002807DB012307FB04551C44042CAB6727
:101E9000F0D10020BDE8F8836FF00400FAE700BF3E
:101EA000E11E00000000AD0B5C51000001460C2358
:101EB00000224B4370B50848C41878331844D4E95D
:101EC0001C56226702F0DBFB2DB132462B46BDE8E3
:101ED00070400248184770BD30000020584E000086
:101EE000052811D8DFE800F0030E10100C0A074B8C
:101EF000986F10F0070007D1FFF7D8BF0220FBE76B
:101F00000320F9E70120F7E7704700BF3000002009
:101F100008B54FF02003EFF3118183F31288BFF36C
:101F20006F8F124A136843F002001060DA0708D47A
:101F300081F31188BFF36F8FBDE80840012002F0E4
:101F4000BCBE4FF05023D3F80C24D3F80C34D30785
:101F5000EED5074802F093FB81F31188BFF36F8F32
:101F6000BDE808400020FFF7A1BF00BFD00000205F
:101F7000A800002008B5074802F02CFF38B1064839
:101F8000FFF708FF0448FFF791F8002008BD6FF045
:101F90001200FBE7704E00009D1F00000A2838B5B4
:101FA0000446074D04D1AB680D2128465B6898476D
:101FB000AB6803485B68E1B29847204638BD00BF74
:101FC000704E00004FF0010C2DE9F0475B4E5C4F66
:101FD00000EB8101814202D10020BDE8F087046856
:101FE00004F07F03C4F343257F2B4FEA144408BF5A
:101FF0004FF0FF33222C00F29D80DFE804F0122323
:1020000028422B3E429B9B9B9B45729B9B9B9B9B91
:102010009B9B9B9B757D80839B9B9B868C8F9295C6
:102020009800C2F80C354FEA5318B8F1010F14BFED
:10203000B646BE4603F01F040CFA04F4CEF808407E
:10204000012402E0C2F814350024A64623E0C2F8B9
:102050000835E8E70024C2F808354FEA5319B9F10A
:10206000010F14BFB046B84603F01F0E0CFA0EFE67
:10207000C8F80CE04FF0010E0DE0C2F80C35012459
:10208000EBE7C2F81035DFE7C2F80835002DDBD1E9
:1020900000240625A64650F804AB03F01F090AF4F5
:1020A0000058B8F1000F4FEA53131CBF01244FF042
:1020B000000E012B0CBFB846B04608EB8908D8F8D3
:1020C0000032CAF3C11A03F0E0492B0243EA8A0343
:1020D00043EA0E0343EA440343EA0903C8F8003223
:1020E00078E7C2F80C35D1E7C2F860350468C4F36C
:1020F0008034002CC3D096E7C2F86435F6E7C2F806
:102100006835F3E7C2F86C35F0E7C2F824350124EE
:102110004FF0000EBFE7C2F8283584E7C2F830352B
:10212000F5E7C2F83435F2E7C2F83835EFE7C2F820
:102130003C35ECE76FF085004FE700BF0025845089
:1021400000288450F8B504460D46076902F061FE88
:1021500090B92C4B1B787BB16426606802F059FB68
:10216000E0B9012002F0D2FC013EF6D1F4E786F39B
:102170001188BFF36F8FEFE74FF02003EFF3118665
:1021800083F31288BFF36F8F6068314602F041FB22
:1021900090B986F31188BFF36F8FEDE74FF02003FE
:1021A000EFF3118683F31288BFF36F8F60683146B7
:1021B00002F02FFB0028DAD03B691D706268386995
:1021C0001368C3F844050120C3F848050020C3F88C
:1021D0002001D3F82051C3F858015268D3F85801B0
:1021E000D20608D5082062681268C2F800054FF4CC
:1021F0008002C3F8042301229A6081F31188BFF39F
:102200006F8FF8BD4E010020F0B54B79012B29D01E
:10221000032B24D110278B79032B20D1CE790EB13B
:10222000012E1CD10A79012A1ED0022A20D0B2B96F
:1022300014460B684568B3F5164FD5F800C06ED04C
:1022400033D8B3F5165F6DD01CD8B3F5966F6BD04D
:1022500010D8B3F5967F6AD0B3F5167F6AD06FF0C9
:1022600085005BE00027D6E74FF480740E22E0E79C
:102270000024FBE7B3F5166F5FD0B3F5965FEED1A0
:10228000384B3CE0B3F5E14F5AD007D8B3F5615F66
:1022900058D0B3F5964FE2D1334B30E047F61225D4
:1022A000AB42DCD14FF4000329E0B3F5613F4BD0E2
:1022B00013D8B3F5963F4AD009D84DF6C025AB42A6
:1022C00047D0B3F5614FCAD14FF46B0317E0B3F5B4
:1022D000E13FC4D14FF0EB7311E0B3F5612F3BD078
:1022E00008D8224DAB423AD0B3F5E12FB7D14FF029
:1022F000E86304E01E4DAB42B1D14FF08053056955
:10230000CCF8243543683A431B6834432243C3F86E
:102310006C252B1D03C983E803000020F0BD4FF49A
:102320001D03ECE7134BEAE74FF49E23E7E74FF476
:10233000A033E4E74FF41C33E1E74FF41D23DEE75D
:102340000D4BDCE70D4BDAE74FF06C73D7E70C4B26
:10235000D5E74FF46503D2E74FF07063CFE74FF056
:102360008063CCE700B0130000A04E0090D00300C3
:1023700040420F000050270000C0750000F03A00F6
:1023800000903A012DE9F743804600220121082000
:10239000FFF7BEFA0820FFF79FFA0021D8F8047073
:1023A000D8F810603C6801AAC4F80015C6F800808F
:1023B000D7F80C90484602F0F6F9051E4DDB019B5C
:1023C000D9F8002019791868FFF7FCFD051E44DBD9
:1023D0004046311DFFF718FF054600283DD17B68B8
:1023E000990713D506F1180000F086FD1E4B9842A0
:1023F00037D1337E43F00043C4F8A031C4F88C30A9
:102400000123327E9340194AC2F804350823C4F8E8
:1024100000353B7A53B9C4F81031D4F810317369E0
:10242000C4F834350123C4F8383523607B689A0733
:102430005CBF4FF48073C4F804337B68DB0644BF91
:102440004FF48003C4F804333369C4F844350023DF
:10245000C4F848350123A360E360284603B0BDE813
:10246000F0836FF00405F8E70000AD0B0070015039
:1024700040EA0103C3F30D0330B58BB940F21515E3
:10248000094C890BC0F38730994201D1002030BD3F
:10249000C218D2B202F5C07244F822500133F3E7F9
:1024A0006FF01500F3E700BF0030005038B5044668
:1024B00081692B4802F014F800232A4A4FF050217A
:1024C000C2F800354FF0FF32C1F80823BFF36F8F19
:1024D00072B6254903F120000133102B41F820206A
:1024E000F8D100234FF0FF301F4A03F160010133A0
:1024F000102B42F82100F8D14FF0E02300221A619E
:10250000D3F8042D03F5506342F000725A605A6A02
:1025100022F4E0225A62EFF31482920707D5EFF318
:10252000148222F0020282F31488BFF36F8FBFF38C
:102530004F8FBFF36F8FA26901219A602046A56972
:1025400000F092FA58B1002383F30B8883F30A88D2
:102550002A6882F3088883F309886B68984738BD36
:10256000305600000080005000E100E01FB5044636
:10257000074A01AB07CA83E807000C221946204628
:1025800002F04DF800280CBF2046002004B010BD1A
:102590000C51000070B505460024054E56F8040B9A
:1025A0002844FFF7E3FF10B90134052CF6D170BDC4
:1025B000EC51000073B50A4606460D460146144824
:1025C00001F08EFF01200DF1060102F05EFA0446D3
:1025D00020B101460F4801F083FF07E0BDF8063047
:1025E0003BB90D4801F07CFF6FF01504204602B0A6
:1025F00070BDB5FA85F1490941EA4601012089B269
:1026000002F05CFA04460028F0D001460348E2E7F5
:102610004256000076560000BC560000E556000009
:102620002DE9F04F814689B010460F4614461D46ED
:10263000D668D2F81080FFF799FF38B915B99A48D3
:1026400001F04EFF002009B0BDE8F08FA0694845B9
:1026500003D0002DF6D19548F2E71DB9B84220D03D
:102660009348EDE73846FFF795FF8442EAD1226AA6
:10267000904B9A42E6D10DF10E0002F0B6F90146F8
:10268000002841D0DDB98C4801F02AFF8B4801F0C9
:1026900027FFADF80E502369B3F5424F3FD9884864
:1026A000CEE7FFF777FF844201D08648C8E7216A6A
:1026B000804B9942DFD0844801F012FFC2E700232B
:1026C000ADF80E302369B3F5424FBBD8E2689A42A9
:1026D000B8D8A619B6D218EB0702B3D2BC4226D39B
:1026E000944224D2013EB74221D896421FD218EB21
:1026F00009082CBF4FF0010A4FF0000AE26925D308
:10270000002D9FD171489BE76169BDF80E20914271
:1027100011D2002D96D16E4801F0E2FE92E7E268F8
:102720009342BCD3A61902D218EB0702D6D3002DD0
:1027300088D1684884E72369B3F5424F02D8E2683C
:102740009342EFD2002D7FF47DAFA8E74A45D7D35F
:102750004245D5D2391DA1EB09018A58914504D9CA
:10276000002D7FF46FAF5C486AE79045F8D9FE18FA
:10277000DFF8689106F1050B0DF1100899E80700E4
:1027800088E807000C224146304601F048FF00B9B6
:102790003EB90136B345F1D1002D7FF453AF504817
:1027A0004EE7F268A3699A420AD1D4F810B002F059
:1027B000D5F8014648B1002D7FF444AF49487BE786
:1027C000002D7FF43FAF48483AE700F0EBF80446AD
:1027D00058B1002D7FF436AF0146444801F080FE29
:1027E00071347FF42FAF42482AE7424A424B002D12
:1027F00014BF9146994600F0CFF8844204D3002DCF
:102800007FF420AF3D481BE74146204600F0F2F838
:10281000102801460ED010F1160F06D11DB9214621
:10282000374801F05DFE0134E5E7002D7FF40AAF83
:10283000344841E755B92146334801F051FE9DF82F
:102840001F209DF81010314801F04AFE41463B46DA
:10285000CDF800B006F1700206F13000C84701461D
:1028600098B92B4E544505D115B92A4801F038FEC8
:102870000120E8E61DB95146304601F031FE5046D0
:1028800000F0E2F80AF1010AECE710F1650F05D15A
:10289000002DC8D1204801F023FEC4E7002D7FF4AD
:1028A000D1AE1E4808E700BF1E5700003E5700008B
:1028B00071570000FFFF0291EE5700003B550000EA
:1028C000555800009E570000C7570000B15800003F
:1028D0001558000084580000DD5800001851000011
:1028E0000A5900006E5900003B5900008E59000043
:1028F000B2590000434900006B490000F65A00003D
:10290000E7590000105A0000335A0000595A0000DD
:102910006F5A0000865A0000A55A0000CA5A0000EB
:1029200014222DE9F041144B144DD3F830310746F1
:1029300002FB0355284602F044FA012803D0002484
:102940002046BDE8F0814FF000082C1DAE1C30463B
:1029500002F037FA4045F2D9A01C02F032FA0546DF
:10296000204602F02EFAB842EAD0023504EB4504C4
:1029700008F10108EBE700BF0080FF003481FF0091
:10298000014BD3F8280170470080FF00014BD3F8BA
:102990002C0170470080FF00014BD3F830017047D5
:1029A0000080FF002DE9F84300264FF6FF780F4C1A
:1029B0000F4FD7F830319E4202D30020BDE8F88394
:1029C000236813F5803F0AD0251D04F11409284619
:1029D00002F0F7F9404505D002354D45F7D10136F3
:1029E0001434E6E76FF07000E8E700BF3481FF00C1
:1029F0000080FF00142370B54343104A9A5812F523
:102A0000803F15D00E4AD2F83021904213D20020D8
:102A10000C4A1A44002316580C1826FA03F50833FA
:102A2000202B04F8015BF8D104301028F2D170BDDE
:102A30006FF01500FBE76FF00D00F8E73481FF0041
:102A40000080FF003881FF0014234343044A981894
:102A50009B5813F5803F02D0024900F069BA7047D5
:102A60003481FF000000FFFF2DE9F04F0F460646BE
:102A700087B0A0B302F03EF84FF000080446B36BF5
:102A800043454ED94FF00009DFF8ACB04FF0000AD3
:102A90005BF8043B0093294B53F8045B0193009BC4
:102AA0001D44274B93E8070003AB83E80700194652
:102AB0000C22284601F0B3FD019B00B99DB90AF133
:102AC000010ABAF1050FE7D11E4B09F10109994539
:102AD000DCD317B10022636A1A60236A33B3002083
:102AE00007B0BDE8F08F2B6A174A9342ECD1AE4293
:102AF000EAD0696B05F13C038842E5D025691A6983
:102B000095420AD19A69A569954206D8E569954228
:102B100003D962695D69AA4305D0DA6801301344BC
:102B2000EAE70120DCE70FB1626A1360E36808F1AD
:102B300001081C44A3E700BFC45B00000052000072
:102B40002451000001000000FFFF02912DE9F04335
:102B5000224885B001F0CEFF002504461F4B204ED1
:102B6000D3F83880DFF87C90A84503D8002005B062
:102B7000BDE8F083636A96E807001F6801AB83E84D
:102B800007000C221946384601F049FD88B987B183
:102B9000636A21691B681A6991420AD19A69A1691D
:102BA000914206D8E169914203D962695B699A430F
:102BB0000AD0276A67B10C4801F092FC404080F3CC
:102BC00011884FF0040002DFE36801351C44CBE7B5
:102BD000484601F085FC636A1F60F5E700020000CB
:102BE000305100003F5B0000165B0000026A044B9E
:102BF0009A4203D10349203000F09AB9704700BFD0
:102C0000FFFF02910000FFFF4FF47F03D3F8302154
:102C1000D3F83431072A05D1023B032B02D8024AEC
:102C2000D05C7047002070477A5B000008B5FFF762
:102C3000EBFF58B1644BD3F8202A3AB90D21C3F801
:102C4000201A0121C3F81C19C3F81C290022D30043
:102C500003F57F03D3F80013013107D0D3F8001335
:102C60000132D3F80433202A0B60F0D1FFF7CCFFF8
:102C7000002840F0A080FFF7C7FF40B1534B544AF3
:102C8000C3F830254FF050230122C3F858254FF4E4
:102C90007F03D3F83021D3F83431072A09D1023B1E
:102CA000032B06D84B4AD35C1BB100224A4BC3F816
:102CB0004C25FFF7A9FF50B14FF05023D3F8002463
:102CC000D10742BF0022C3F81421C3F818214FF4E2
:102CD0007F03D3F83021D3F83431072A09D14FF0DC
:102CE0005023D3F80024D20744BF6FF00102C3F889
:102CF0000024FFF789FF18B16522334BC3F80C2776
:102D00004FF47F03D3F83021D3F83431072A16D19A
:102D1000314BD3F82034002B11DA4FF0502303222B
:102D2000C3F8182501229A60D3F80421002AFBD0A9
:102D30000022C3F804210122DA60C3F818254FF4F9
:102D40007F03D3F83021D3F83431072A23D1023B53
:102D5000032B02D8214AD35CEBB17E221A4B1B49CC
:102D6000C3F80C27C3F83C297F231D4AC2F8183149
:102D70000023C1F8043EC1F8083E01F54821C1F81E
:102D80001031C2F82431C2F82C3102F5FF1202F5DD
:102D90008052C2F8A032134AD2F88C3043F4406318
:102DA000C2F88C30104A114B1168C3F84415D2692F
:102DB000C3F84C2508BD2922034BC3F80C27032276
:102DC000C3F83C2757E700BF004000500090035075
:102DD0004400EFBE765B000000200350725B0000F1
:102DE0000020005000ED00E00080FF000060005077
:102DF00070B501250268B2FA82F3C3F11F03DBB29A
:102E000005FA03F422EA0404D0E8EF6F964204D1F5
:102E1000C0E8EC4FBCF1000FF6D1EBD101480B70CC
:102E200070BD00BF0000AD0B044B1A7922B901221E
:102E300018601A710248704702487047D400002099
:102E40000000AD0B0C00AD0B4FF0502310B5D3F8C4
:102E5000002152B10020C3F80001D3F80021012263
:102E6000C3F80823234B1B6898474FF05023D3F82F
:102E700004218AB10022C3F80421D3F80421D3F835
:102E80001824D3F8181402F00302012A4FF00201AB
:102E900028D1C3F818159A604FF05023D3F8202199
:102EA00062B10022C3F82021D3F820214FF48072B0
:102EB000C3F808230F4B04201B6898474FF050239A
:102EC000D3F82421AAB10022C3F82421D3F8242165
:102ED0004FF40072C3F80823064B0520BDE81040EC
:102EE0001B681847C3F80813024B01201B6898475A
:102EF000D2E710BDD400002001460148FFF778BF9B
:102F0000280000200022034BC3F88425C3F80425C1
:102F1000704700BF00900350044AD2F80034DB072A
:102F2000FBD50160BFF35F8F704700BF0090035077
:102F3000012208B5054BC3F88425C3F80425FFF723
:102F4000EBFFBDE80840FFF7DDBF00BF0090035076
:102F5000104B70B553F82040013053F82060A64262
:102F600000D870BDD4E900358DB12846984738B1F6
:102F70000028B8BF4042FF28A8BFFF20EB681870A8
:102F8000EA68537843F0010353700834E7E7984741
:102F9000FBE700BF14520000012208B5084B0320D4
:102FA0001A70FFF7D5FF00F06DF80420FFF7D0FF8F
:102FB000FEF742F8034A137B23F00103137308BDA5
:102FC0004E010020DC00002008B50348034A002120
:102FD000121A01F01AFF08BD300000205001002035
:102FE00008B50020FFF7B4FF164B03F5006282F32B
:102FF000088883F30A880025E023134C84F82230E4
:10300000E57725766576A57684F82050636A43F4E3
:10301000E023636284F82350FEF720FEFEF756FC9F
:103020004FF0FF33A362E36201F0D3FE0120FFF70C
:103030008FFF0220FFF78CFF2B462A4629460348C4
:10304000FEF7ACFC5001002000ED00E0992F0000DD
:1030500008B50648064A0749121A01F0D8FEBDE82D
:103060000840054A0549064801F0D1BE000000208D
:1030700030000020D05B000000000000D05B0000AA
:1030800000000020014801F02BBA00BF965B000051
:10309000F0B50546C1B00F4608A805F12001164657
:1030A00000F094F908A90446684600F0D7F93946BB
:1030B00008A800F08BF908A96A46084600F0C0F994
:1030C00008A920A801F004FA0346294608A81D46CD
:1030D00000F07CF96A4608A90443684600F0B0F99C
:1030E000314630A801F00CF930A96A46044308467D
:1030F00001F038F920AA044330A918A8FDF74CFBC9
:1031000018A90846FDF726FC20AA30A910A8FDF74B
:1031100009FC18A9084610AAFDF77CFB18A9084667
:10312000194AFDF777FB28AA10A838A9FDF734FB48
:1031300010A9084600F062F810A918AA0846FDF781
:10314000F1FB10A90846FDF705FC20AA10A918A854
:10315000FDF760FB18A930AA0846FDF75BFB68463F
:1031600018A900F05DF9684630A96A42FDF774F9C4
:10317000202268460DEB0201FDF7E0FA01382043FA
:1031800040F3000041B0F0BD2C52000070B588B093
:1031900004460D46164600212022684601F05AFAE0
:1031A0000023294620222046009301F048FA2A46AF
:1031B00069466846FDF72EFB324669462046FDF714
:1031C0004BF908B070BD00BF0B681BBAC3614B68F8
:1031D0001BBA83618B681BBA4361CB681BBA03615E
:1031E0000B691BBAC3604B691BBA83608B691BBA3E
:1031F0004360CB691BBA0360704700BF70B50D46D2
:10320000052498B0064610A8FDF7A4FB2A46684698
:1032100010A9FDF787FB694610A8FDF79BFB10A9D5
:103220000846FDF797FB6A4610A908A8FDF77AFB48
:1032300008A910A8FDF78EFB10A90846FDF78AFB28
:1032400010A90846FDF786FB10A90846FDF782FB8A
:1032500010A908AA0846FDF765FB10A90846FDF766
:1032600079FB10A90846FDF775FB10A96A4608A866
:10327000FDF758FB08A910A8FDF76CFB10A908463C
:10328000FDF768FB013C10A9F5D1084608AAFDF737
:1032900049FB052410A90846FDF75CFB10A9084668
:1032A000FDF758FB013CF5D110A908AA0846FDF727
:1032B00039FB10A908A8FDF74DFB08A90846FDF742
:1032C00049FB08A96A466846FDF72CFB10246946AD
:1032D00010A8FDF73FFB10A90846FDF73BFB013C9A
:1032E00010A9F5D12A460846FDF71CFB402410A979
:1032F0000846FDF72FFB10A90846FDF72BFB013C04
:10330000F5D110A96A460846FDF70CFB102410A958
:103310000846FDF71FFB10A90846FDF71BFB013C03
:10332000F5D110A96A460846FDF7FCFA102410A949
:103330000846FDF70FFB10A90846FDF70BFB013C03
:10334000F5D110A9084608AAFDF7ECFA2A4630463E
:1033500010A9FDF7E7FA18B070BD00BFF0B514462C
:1033600005460F46A1B068462146164AFDF73AF9D0
:10337000154E08A922460846FCF7D2FF324608A996
:1033800010A8FDF72FF9189B2468394610AA284683
:10339000E41AFCF7E5FF0346324629462846E41ABC
:1033A000FCF7DEFF0346E41AE24331462846D20F1B
:1033B000FDF724F8024631462846121BFCF7F0FFC1
:1033C00021B0F0BD4C5200006C52000038B50B68C3
:1033D000124D1BBAC3614B682A461BBA83618B68C6
:1033E00004461BBA4361CB681BBA03610B691BBA65
:1033F000C3604B691BBA83608B691BBA4360CB699E
:1034000001461BBA0360FCF7ABFF034620461C468F
:1034100029461A46FCF7C4FF601E38BD6C520000F6
:1034200038B5064D04462A46FCF79AFF294602465F
:103430002046BDE83840FCF7B3BF00BF6C52000027
:1034400010B5044690B06846FDF7CCF869462046B2
:1034500008AAFFF783FF10B010BD00BFF0B50F46FC
:10346000A1B0044610A8FDF759F918AA10A908A898
:10347000FFF774FF3A4608A910A8FDF7B3F818AA99
:10348000684610A9FFF76AFF694610A8FDF746F9DC
:1034900018AA10A908A8FFF761FF08A910A8FDF74E
:1034A0003DF918AA10A908A8FFF758FF6A4608A90D
:1034B00010A8FDF797F818AA684610A9FFF74EFF65
:1034C000694610A8FDF72AF918AA10A908A8FFF75D
:1034D00045FF08A910A8FDF721F918AA10A908A806
:1034E000FFF73CFF08A910A8FDF718F918AA10A9C2
:1034F00008A8FFF733FF08A910A8FDF70FF918AACD
:1035000010A908A8FFF72AFF6A4608A910A8FDF726
:1035100069F810A9684618AAFFF720FF0225694636
:1035200000E0012510A8FDF7F9F818AA10A908A8CD
:10353000FFF714FF08A910A8FDF7F0F818AA10A9C2
:1035400008A8FFF70BFF08A910A8FDF7E7F818AACD
:1035500010A908A8FFF702FF08A910A8FDF7DEF8D8
:1035600010A918AA08A8FFF7F9FE012D08A9D8D1BB
:103570006A4610A8FDF736F810A9684618AAFFF7A2
:10358000EDFE0425694610A8FDF7C8F818AA10A991
:1035900008A8FFF7E3FE08A910A8FDF7BFF818AACE
:1035A00010A908A8FFF7DAFE08A910A8FDF7B6F8D9
:1035B00018AA10A908A8FFF7D1FE08A910A8FDF7BE
:1035C000ADF810A918AA08A8FFF7C8FE013D08A980
:1035D000D9D16A4610A8FDF705F810A9684618AABF
:1035E000FFF7BCFE1025694610A8FDF797F818AA4A
:1035F00010A908A8FFF7B2FE08A910A8FDF78EF8D9
:1036000018AA10A908A8FFF7A9FE08A910A8FDF795
:1036100085F818AA10A908A8FFF7A0FE08A910A805
:10362000FDF77CF810A918AA08A8FFF797FE013D3E
:1036300008A9D9D16A4610A8FCF7D4FF18AA10A986
:1036400008A8FFF78BFE082508A910A8FDF766F863
:1036500018AA10A908A8FFF781FE08A910A8FDF76D
:103660005DF818AA10A908A8FFF778FE08A910A805
:10367000FDF754F818AA10A908A8FFF76FFE08A9CB
:1036800010A8FDF74BF818AA10A908A8FFF766FEC6
:10369000013DD9D16A4608A910A8FCF7A3FF20462E
:1036A00018AA10A9FFF75AFE20263C4D01E0013E62
:1036B00018D0214610A8FDF731F8204618AA10A905
:1036C000FFF74CFE002D4FEA4505F0DA3A46214659
:1036D00010A8FCF787FF204618AA10A9FFF73EFEA6
:1036E000013EE6D120262E4D01E0013E18D02146B4
:1036F00010A8FDF713F8204618AA10A9FFF72EFE10
:10370000002D4FEA4505F0DA3A46214610A8FCF7AD
:1037100069FF204618AA10A9FFF720FE013EE6D156
:103720002026204D01E0013E18D0214610A8FCF7CC
:10373000F5FF204618AA10A9FFF710FE002D4FEA4A
:103740004505F0DA3A46214610A8FCF74BFF204623
:1037500018AA10A9FFF702FE013EE6D12026124D5D
:1037600001E0013E18D0214610A8FCF7D7FF204603
:1037700018AA10A9FFF7F2FD002D4FEA4505F0DA6F
:103780003A46214610A8FCF72DFF204618AA10A99A
:10379000FFF7E4FD013EE6D121B0F0BDADFAE6BC95
:1037A000849E17A7C2CAB9F34F2563FC3F2A2DE9AF
:1037B000F041904652D905460C46A2F1400626F04B
:1037C0003F064036274F0E44236840341BBA2B6413
:1037D00054F83C3C39461BBA6B6454F8383C2846D4
:1037E0001BBAAB6454F8343C1BBAEB6454F8303C5D
:1037F0001BBA2B6554F82C3C1BBA6B6554F8283C5B
:103800001BBAAB6554F8243C1BBAEB6554F8203C5A
:103810001BBA2B6654F81C3C1BBA6B6654F8183C58
:103820001BBAAB6654F8143C1BBAEB6654F8103C58
:103830001BBA2B6754F80C3C1BBA6B6754F8083C56
:103840001BBAAB6754F8043C1BBAEB67FDF79AF858
:10385000B442B9D108F03F00BDE8F0811046BDE8A0
:10386000F08100BF8C5200000A4610B514681A4956
:1038700024BA0464546824BA4464946824BA8464FE
:10388000D46824BAC464146924BA0465546924BA97
:103890004465946924BA8465D46924BAC465146AF9
:1038A00024BA0466546A24BA4466946A24BA8466C4
:1038B000D46A24BAC466146B24BA0467546B24BA5D
:1038C0004467946B24BA8467D26B12BAC267FDF75F
:1038D00059F8002010BD00BF8C5200000023F0B545
:1038E0000B490C4C0C4ADFF834E0DFF834C00D4FC4
:1038F0000D4E0E4DC0E903ECC0E90576C0E900416C
:10390000C5618260C0F8C030C0F8C430F0BD00BFEF
:1039100085AE67BB67E6096A72F36E3C3AF54FA560
:103920007F520E518C68059BABD9831F19CDE05B8C
:103930002DE9F041D0E930531344074614460E46B2
:10394000C0F8C430E5B13F2D00F2C280CAB105F124
:103950007F01C5F1400833460144B04400E0ACB3F8
:10396000013313F8010C9A1B434501F8010F04F1D0
:10397000FF342A44F3D1402A00F098801546464689
:103980001CB9C7F8C050BDE8F08122463146384620
:10399000FFF70CFF221A0546B3180028F1D0411E8C
:1039A000052906D90132324407F180018A1A022A18
:1039B00013D8264407F17F0213F8011B9E4202F838
:1039C000011FF9D1C7F8C050BDE8F081402A78D076
:1039D0001546C7F8C050BDE8F08119688208012A71
:1039E000C7F8801077D05968022AC7F8841043D0EE
:1039F0009968032AC7F888103ED0D968042AC7F806
:103A00008C1039D01969052AC7F8901034D059693B
:103A1000062AC7F894102FD09969072AC7F898107A
:103A20002AD0D969082AC7F89C1025D0196A092A12
:103A3000C7F8A01020D0596A0A2AC7F8A4101BD0D2
:103A4000996A0B2AC7F8A81016D0D96A0C2AC7F8A9
:103A5000AC1011D0196B0D2AC7F8B0100CD0596BEF
:103A60000E2AC7F8B41007D0996B0F2AC7F8B81000
:103A700002D0DA6BC7F8BC20AA0782D025F0030277
:103A800013441878B91881F88000511C8D427FF6D4
:103A900078AF587802323944954281F880007FF639
:103AA00070AF9B783A4482F880306AE7384607F175
:103AB0008001FFF7D9FE46460546002C3FF461AF72
:103AC00063E7384607F18001FFF7CEFE054658E769
:103AD0002A4688464FE704221344D2E7F8B58026E9
:103AE0000446D0F8C0300D46C218581C382882F859
:103AF0008060264432D93F282AD8002220443E2B19
:103B000080F8802003F1020122D021443D2B81F86E
:103B1000802003F103011BD021443C2B81F880203D
:103B200003F1040114D021443B2B81F8802003F1E0
:103B300005010DD021443A2B81F8802003F10601C4
:103B400006D02144382B81F8802001D184F8BF2091
:103B500031462046FFF788FE3A285BD8421C3B2AB4
:103B6000C0F13A01C0F13B0388BF0123022941D9CA
:103B700000219A0800F1800E012A04EB0E0C44F893
:103B80000E1031D0022ACCF804102DD0032ACCF824
:103B9000081029D0042ACCF80C1025D0052ACCF81E
:103BA000101021D0062ACCF814101DD0072ACCF80A
:103BB000181019D0082ACCF81C1015D0092ACCF8F6
:103BC000201011D00A2ACCF824100DD00B2ACCF8E2
:103BD000281009D00C2ACCF82C1005D00E2ACCF8CD
:103BE000301008BFCCF8341023F003029B071044B8
:103BF00010D0421C002321183B2A81F8803009D0C4
:103C00002244392882F8803000F1020202D0224496
:103C100082F880300022D4F8C43031465F0F4FEA7A
:103C2000535E67F307024FEA533C6EF30F225E09BF
:103C30006CF31742DB0066F31F6284F8BF30204646
:103C4000C4F8BB20FFF710FE23681BBA2B60636823
:103C50001BBA6B60A3681BBAAB60E3681BBAEB606E
:103C600023691BBA2B6163691BBA6B61A3691BBA19
:103C7000AB61E3691BBAEB61F8BD00BF2DE9F04110
:103C80000027B54CB54BB2B0CDE90043B44BB54EAF
:103C90000293B54B1446CDE90363B44B0546059337
:103CA000B34B3097069303F17453A3F52303A3F6A4
:103CB000924331920793002A40F0848080224FF093
:103CC0003A0C01236E460DEB02078DF88020002090
:103CD0004FEA9C0203F1800E012A06EB0E0146F822
:103CE0000E0024D0022A486021D0032A88601ED00A
:103CF000042AC8601BD0052A086118D0062A48612A
:103D000015D0072A886112D0082AC8610FD0092A65
:103D100008620CD00A2A486209D00B2A886206D0B1
:103D20000C2AC86203D00E2A086308BF48631CF03F
:103D3000030F16D02CF0030C6344002103F1C802DA
:103D40006A443A2B02F8481C0BD003F1C9026A44BA
:103D5000392B02F8481C04D0CA330DEB030202F8D9
:103D6000481C0023620F62F30703620D62F30F2306
:103D7000620B62F317436209394662F31F633046F0
:103D8000E400CDF8BB308DF8BF40FFF76DFDDDE9F5
:103D90000001DDE9022306BA14BA18BA09BADDE94E
:103DA000042312BA69602A6119BADDE9062312BA3E
:103DB0001BBA2E60AC60E8606961AA61EB6132B049
:103DC000BDE8F0816E4630468846FFF7EFFC241AC6
:103DD00008EB0403002800F0F580421E022A53D9A4
:103DE00058F8042020928208012A00F0E6805968E1
:103DF000022A219100F0BE809968032A229100F0E6
:103E0000E780D968042A239100F0E7801969052A20
:103E1000249100F0E7805969062A259100F0E78097
:103E20009969072A269100F0E780D969082A279125
:103E300000F0E780196A092A289100F0ED80596A9C
:103E40000A2A299100F0B180996A0B2A2A9100F080
:103E5000F480D96A0C2A2B9100F00381196B0D2A8A
:103E60002C9100F00981596B0E2A2D9106D00F2A52
:103E7000996B18BFDA6B2E9118BF2F9220F00307B1
:103E800082073B4400F0DE80197807F1C8026A44DB
:103E900002F8481C7A1C90420FD9591C0978C83284
:103EA00002376A44B84202F8481C06D99B7807F1E9
:103EB000C8020DEB020707F8483C8021431C00F1C3
:103EC000C8026A44382B309002F8481C6AD93F2B4C
:103ED0002CD80022C8336B443E2803F8482C25D048
:103EE00000F1CA030DEB03013D2801F8482C1DD059
:103EF00000F1CB036B443C2803F8482C16D000F1AA
:103F0000CC036B443B2803F8482C0FD000F1CD03C1
:103F10006B443A2803F8482C08D000F1CE036B44D8
:103F2000382803F8482C01D18DF8BF2020AF39463E
:103F30003046FFF799FC3A2803463CD8319CC3F140
:103F40003A02022A7FF6F9AE5A1C3B2AC3F13B0C17
:103F500088BF4FF0010CBAE667E6096A85AE67BB19
:103F600072F36E3C3AF54FA57F520E518C68059B5B
:103F7000ABD9831F082854D008273B4419467A1C24
:103F800011F801CB07F1C8046C44904204F848CC06
:103F900084D8802100F1C8030DEB03023090431C4C
:103FA00002F8481C319C20AFC9E7282800F088801F
:103FB00028273B44E2E7319CD3E6042826D0042797
:103FC0003B44DBE78022012330908DF88020E9E735
:103FD0000C282CD00C273B44D0E710283BD01027CE
:103FE0003B44CBE7142841D014273B44C6E71828AC
:103FF00047D018273B44C1E71C2849D01C273B4425
:10400000BCE7202850D020273B44B7E78022052377
:1040100030908DF88420C5E724283FD024273B44E6
:10402000ACE78022092330908DF88820BAE78022FF
:104030000D2330908DF88C20B4E72C283AD02C2713
:104040003B449BE7802100F1C8026A443090431C46
:1040500002F8481C3BE78022112330908DF8902015
:10406000A0E7302832D030273B4487E78022152351
:1040700030908DF8942095E734282DD034273B4498
:104080007CE718218022192330918DF8982089E748
:1040900080221D2330908DF89C2083E780222523E9
:1040A00030908DF8A4207DE78022212330908DF878
:1040B000A02077E780222D2330908DF8AC2071E787
:1040C0008022292330908DF8A8206BE780223123AD
:1040D00030908DF8B02065E78022352330908DF840
:1040E000B4205FE72DE9F04106460C46904688B0C3
:1040F000684602F1200106F12007FCF72BFC6A4616
:1041000069466846FCF748FB69463846FCF722FCDE
:104110003A463946384604F12005FCF73DFB6A462D
:1041200069466846FCF738FB41462846FCF712FC16
:104130006A4641463046FCF7F5FB2A462946684662
:10414000FCF72AFB2A4669466846FCF725FB6946C8
:104150006846114AFCF720FB69462046FCF7FAFB4B
:10416000324621462046FCF755FB32462146204682
:10417000FCF750FB224631462846FCF74BFB6A46CB
:1041800029462846FCF7CEFB3A4629462846FCF746
:1041900041FB08B0BDE8F0814C540000F0B5044686
:1041A0000D4699B02A4668462146FCF733FB69461E
:1041B0006846FCF7CFFB6A46214608A805F12006B1
:1041C00004F12007FCF7AEFB6A4629466846FCF777
:1041D000A9FB3246394610A8FCF7DEFA32463946CA
:1041E0003046FCF717FB31462846FCF7B3FB6A461E
:1041F000204608A9FCF7D0FA224629462846FCF7B3
:1042000009FB6A46684608A9FCF704FB6A4639467A
:104210003846FCF787FB2A46684608A9FCF7FAFAF5
:104220006A4631463046FCF77DFB3A463146304619
:10423000FCF7F0FA684610A9FCF78CFB22466946A9
:104240002046FCF7E7FA08A922460846FCF7E2FAFE
:1042500010A9084608AAFCF765FB3A46384610A99B
:10426000FCF7D8FA19B0F0BD2DE9F04105460C462F
:10427000904688B00A4668462946FCF7CBFA69465C
:104280006846FCF767FB6A462946284604F1200683
:10429000FCF748FB05F120076A4621466846FCF713
:1042A00041FB324639463046FCF7B4FA31462046E7
:1042B000FCF750FB2A4621462046FCF7ABFA6A463B
:1042C00021462046FCF7A6FA6A4629464046FCF7F6
:1042D000A1FA424639463846FCF724FB22462946D5
:1042E0006846FCF797FA6A4631463046FCF71AFBF7
:1042F0003A4631463046FCF78DFA08B0BDE8F08109
:1043000070B504460D4690B004F12006FEF75CFF40
:10431000304605F12001FEF757FF214608A8FCF7BB
:1043200019FB08A908460D4AFCF736FA08A92246E7
:104330000846FCF7F7FA08A90846094AFCF72CFAE0
:1043400031466846FCF706FB202269460DEB020069
:10435000FCF7F4F9013810B070BD00BF4C540000F8
:104360002C54000013462DE9F047B8B08946544A52
:104370001946804610A8FBF7F3FF5249024610A8E1
:10438000FCF70EF80746179E4D4907EAD676C6F1A8
:10439000010210A8FCF704F8179C4A46E44328A938
:1043A00018A8FFF79FFEE40F20A90846C4F10102F8
:1043B0004FF0FE0AC7F10107FEF7E8FE25466A4600
:1043C00018A928A8FFF750FF4FEA6A1338AA02EB92
:1043D000830353F8A04C0AF01F03DC4004F00104EF
:1043E00065402A4628A918A8FCF736F82A4630A9BD
:1043F00020A8FCF731F80AF1FF3A28A918A8FFF71E
:10440000CDFEBAF1FF3FD9D1C4F1010220A908A81D
:10441000FEF7BCFE66406A4618A928A8FFF724FFED
:10442000324628A918A8FCF717F8324630A920A868
:10443000FCF712F808A96A460846FCF773FA08A9BF
:104440000846FEF7DBFE08A908F12004084609F13A
:104450002002FCF767FA204620A908AAFCF762FAB6
:1044600008AA684618A9FCF75DFA69466846FCF791
:1044700071FA18AA694608A8FCF754FA214668465A
:10448000FCF768FA08AA69461046FCF7C3F96846C3
:104490000D4A08A9FCF7BEF920462021FCF762F975
:1044A000024608A9684654423C43FBF7D5FF404604
:1044B0006946064AFCF736FA204638B0BDE8F08770
:1044C000AC530000CC5300002C5400008C5300006F
:1044D0000A460149FFF746BFEC5300000020704731
:1044E0000FB407B504A951F8040B0191FCF7E4FDE2
:1044F00003B05DF804EB04B0704738B50C460546D0
:1045000058B151B10B6843B14B6833B11C22002143
:1045100000F0A0F800202C6138BD6FF01500FBE71B
:104520002DE9F84F9A46D37880466F2B0F461546F3
:10453000A3F1410B29D024D8582B0CBF10260A26F2
:10454000DDF828903246002340463946FBF7CEFE80
:10455000092AD4B21ED83034B045E4B277F100074E
:1045600009F8014D01D3D14511D82B789B0605D50B
:10457000082E15D1AB7843F00803AB704846BDE870
:10458000F88F03F0F703702BD7E70826D8E78046AB
:104590000F46D7E7BBF1190F94BF37345734DBE729
:1045A000102EEBD1AB7843F01003E6E72DE9F04194
:1045B0000746884615461E461446B44205D30EB13A
:1045C000601B08E02378002BFAD0414614F8010B59
:1045D000B8470028F1DABDE8F081704700F005BC6B
:1045E0000146006800F001BC00210120FFF7F6BF82
:1045F00008B5FDF7A3F9BDE80840FDF701BA034689
:1046000000201A5C02B970470130FAE70346002027
:104610001A5C0AB1884200D170470130F8E710B542
:104620005AB10139841810F8012B11F8013FA0424A
:1046300001D09A42F7D0D01A10BD1046FCE710B551
:10464000431E0A44914200D110BD11F8014B03F8FA
:10465000014FF7E70346C9B20244934200D17047C5
:1046600003F8011BF9E74FF0FF3070470C22036994
:10467000C9B201FB0233986F00F0070070474FF09A
:104680002003EFF3118283F31288BFF36F8F036867
:1046900003F0C00343F00203036082F31188BFF309
:1046A0006F8F704770B5C9B203694FF02004EFF304
:1046B000118584F31288BFF36F8F0C2606FB01343B
:1046C000A46F14F0C00408D0A24206D085F311886C
:1046D000BFF36F8F4FF0FF3070BD012206FB013337
:1046E0009A6785F31188BFF36F8F436803EBC103AB
:1046F0005B6898470020EFE78022FFF7D3BFF8B54B
:10470000069F0469C9B24FF02005EFF3118685F3C7
:104710001288BFF36F8F0C2505FB0144A56F05F0D0
:10472000070CBCF1010F0CD1A76786F31188BFF30A
:104730006F8FC4E91C23436853F831309847002039
:10474000F8BD05F0C005AF4286F31188BFF36F8F47
:104750000CBF6FF077004FF0FF30F1E713B5802406
:104760000094FFF7CCFF02B010BD6FF085007047DA
:1047700010B41C240069CBB203FB0400002110BC60
:104780001047032000F099BA022000F096BA0020EA
:1047900000F093BA032000F0EFBA022000F0ECBA68
:1047A000002000F0E9BA30B543681360057A446828
:1047B00004EBC504A34202D36FF0010030BD5C7965
:1047C0008C4201D00833F0E70020F7E70B4602697E
:1047D000D2E9010183E803000020704743681B68A9
:1047E000D3F88004C3F880047047436802691B68EB
:1047F000D3F8100150B10020526912780A70C3F842
:104800001001D3F8102101221A6070474FF0FF30D9
:10481000704702680346D2F8580140B95B689B07AD
:1048200006D4D2F82001003818BF012070470120BB
:10483000704742681368D3F80413C90518D5D3F834
:104840002011A9B14FF02000EFF3118180F31288FD
:10485000BFF36F8FD3F8200130B10020C3F82001DF
:10486000D3F820010120D86081F31188BFF36F8F46
:104870005268D20615D54FF02001EFF3118281F373
:104880001288BFF36F8FD3F8581111B10021C3F80C
:1048900000154FF48001C3F8081382F31188BFF3A9
:1048A0006F8F7047002008B5FDF72AFA30B589B040
:1048B000154601230A460146684600F073F804468F
:1048C00040B9202269462846FBF738FF002808BF78
:1048D0006FF06404204609B030BD2DE9F04190B07E
:1048E0009DF85C600446884615461F4601463346DF
:1048F000402208A800F056F838B91022404608A90E
:10490000FBF71CFF20B96FF0640010B0BDE8F08128
:10491000334639466846169A00F044F80028F4D128
:104920002022334669460DEB020000F03BF80028D8
:10493000EBD120212B4622460DEB010000F01EF8A2
:10494000E3E713B501240194049C0094FFF7C5FF2D
:1049500002B010BD002070470020704708B5FFF777
:10496000F9FF08B9FFF7F8FF08BD13B5002401945B
:10497000049C0094FFF7B1FF02B010BD38B50D469E
:10498000014660B1202D0AD14AB143B11846FEF765
:104990007FFB431C0CBF6FF06500002038BD6FF03B
:1049A0001500FBE708B5FFF769F9002008BD08B559
:1049B00018B1FEF793FF002008BD6FF00D00FBE774
:1049C00008B528B101B91AB9FEF7B2FF002008BD39
:1049D0006FF01500FBE708B520B119B1FFF77EF8BD
:1049E000002008BD6FF01500FBE713B5044658B171
:1049F00001200DF1060100F05EF818B9BDF806308F
:104A00005B08238002B010BD6FF01500FAE770B5A7
:104A1000054608460C46FDF7BDFD2146024601232A
:104A20002846BDE87040FDF7FBBD0A46002301465D
:104A3000FDF7F6BD2DE9F8430D461646FDF770FF6C
:104A40000446F8B1F5B1023000F0BBF90027814609
:104A5000B8460434B94507D8002406B134600020B4
:104A6000A5F80080BDE8F883204600F0AAF9C3430A
:104A70009BB2A21C002BF0D0984538BF9846144634
:104A80000137E7E76FF01500ECE710B50C46FDF7CE
:104A900047FF58B154B1023000F093F94FF6FF725E
:104AA000904203464FF0000003D120806FF01500C4
:104AB00010BD2380FCE70022FFF7BCBF37B50D46D1
:104AC00001AA0DF10201FFF7B5FF044648B9BDF890
:104AD0000230AB4208D2019848B1E94389B200F0F4
:104AE00060F9204603B030BD6FF01504F9E76FF0B0
:104AF0000B04F6E703465A6B00233C309A4200D180
:104B00007047C16801330844F8E7004700F087B9EF
:104B100073B5032800F2A780DFE800F002192735FB
:104B20004FF050230222C3F808230022C3F80421C7
:104B3000D3F804210122DA60002401238DF8073024
:104B4000032800F29080DFE800F02C69789A4FF09B
:104B5000502301220021C3F80823C3F80011D3F821
:104B600000110DF107045A60E7E74FF050234FF4AE
:104B70000072C3F808230022C3F82421D3F82421AB
:104B800001225A62D8E74FF050234FF48072C3F8E5
:104B900008230022C3F82021D3F820210122DA6162
:104BA000CAE742F210754FF050266CB3D6F81834AD
:104BB00003F003032370D6F81834D90353D59DF8B6
:104BC000070001284FD1FFF7A1FF013DEDD14AE0D9
:104BD0009DF80700012846D1FFF798FF013D52D10B
:104BE00041E09DF8070001283DD1FFF78FFF013D0F
:104BF00039D0C4B1D6F80C3403F001032370D6F8D1
:104C00000C34DB032FD5ECE7D6F81834DA032AD5B9
:104C10000120FFF77BFF013DF6D124E042F2107541
:104C20004FF05026E5E7D6F80C34D8031BD5012009
:104C3000FFF76CFF013DF6D115E042F210754FF021
:104C4000502694B1D6F85C3403F001032370D6F8F3
:104C50005C34D90307D59DF80700012803D1FFF77D
:104C600055FF013DEDD102B070BDD6F85C34DA03DA
:104C7000F9D50120FFF74AFF013DF6D1F3E742F2F3
:104C800010754FF05026D6F85434DB03EBD5002CCA
:104C90009ED10120A0E708B50520FCF72BFE10B936
:104CA0000520FCF719FE4FF050230122C3F8182508
:104CB000C3F81425C3F8802508BD08B5032819D802
:104CC000DFE800F002323E4C4FF05022D2F81834A8
:104CD000D2F81814C9030ED4D2F81434DB0713D554
:104CE000D2F81C3403F00303013B012B09D8022343
:104CF000C2F8043308BD03F00303022B05D0012BD7
:104D000002D00020FFF704FF01234FF05022C2F829
:104D100018350023C2F80431D2F804310223C2F856
:104D2000043301239360E5E74FF050230022C3F8DA
:104D30000021D3F800210122C3F804231A60D9E727
:104D40004FF050230022C3F82421D3F824214FF43C
:104D50000072C3F8042301221A62CBE74FF05023FC
:104D60000022C3F82021D3F820214FF48072C3F829
:104D7000042301229A61BDE7FFF7CABE4FF0FF335B
:104D800082B0019300F0030001AB03440A44914256
:104D900002D1019802B0704711F8010B03F8010B22
:104DA000F5E713B50222ADF806100DF10601044631
:104DB000FFF7E4FF014624F00300FEF7B9F802B064
:104DC00010BD20F003031B6882070CBF98B2180CBB
:104DD0007047704740B1C368587810F001001EBF9B
:104DE0001878B0FA80F04009704710B54FF02003F2
:104DF000EFF3118483F31288BFF36F8FFFF752FD37
:104E000084F31188BFF36F8F10BDFFF723BCFFF74A
:104E100016BCEFF30580003818BF0120704708B1B9
:104E2000FCF740BD7047704790BEFF7F0100000057
:104E30005518000000000000491E0000584E0000F8
:104E400085230000704E0000751F00000000000068
:104E50004D2B000000000000F155000068510000DB
:104E6000885100002C00002030000020B6500000C7
:104E70000A560000A4510000D85100002E00002066
:104E800008000020B050000000000000E9450000CC
:104E900000000000E945000000000000E9450000B6
:104EA00000000000E945000000000000E9450000A6
:104EB000492E00000B4B000000000000E9450000F7
:104EC00000000000E9450000704E0000334800007B
:104ED00000000000E945000000000000E945000076
:104EE00000000000E945000000000000E945000066
:104EF00000000000E945000000000000E945000056
:104F000000000000E945000000000000E945000045
:104F100000000000E945000000000000E945000035
:104F200000000000E945000000000000E945000025
:104F300000000000E945000000000000E945000015
:104F400000000000E945000000000000E945000005
:104F500000000000E945000000000000E9450000F5
:104F600000000000E945000000000000E9450000E5
:104F700000000000E945000000000000E9450000D5
:104F800000000000E945000000000000E9450000C5
:104F900000000000E945000000000000E9450000B5
:104FA00000000000E945000000000000E9450000A5
:104FB00000000000E945000000000000E945000095
:104FC00000000000E945000000000000E945000085
:104FD00000000000E945000000000000E945000075
:104FE00000000000E945000000000000E945000065
:104FF00000000000E945000000000000E945000055
:1050000000000000E945000000000000E945000044
:1050100000000000E945000000000000E945000034
:1050200000000000E945000000000000E945000024
:1050300000000000E945000000000000E945000014
:1050400000000000E945000000000000E945000004
:1050500000000000E945000000000000E9450000F4
:1050600000000000E945000000000000E9450000E4
:1050700000000000E945000000000000E9450000D4
:1050800000000000E945000000000000E9450000C4
:1050900000000000E945000000000000E9450000B4
:1050A00000000000E945000000000000E9450000A4
:1050B00000800080FF7F00800080FF7F7E5B00001B
:1050C00000000000895B000000000000D6550000D1
:1050D00000000000FC550000000000002456000005
:1050E00000000000935B000000000000ED55000090
:1050F000000000001456000000000000FFFFFFFF4A
:10510000DEE61E284CBBCE8F02350000DEE61E28F0
:105110004CBBCE8F02350000DEE61E28838451860C
:1051200002350100DEE61E284CBBCE8F02350000A2
:10513000DEE61E28EAAC45B802350000000000009B
:105140000338FDD870470000000000000002000096
:10515000000400000008000000100000D11D000045
:10516000A11D000000000000111F0000151E00001E
:105170008F470000A1470000894700009B470000BF
:1051800083470000954700006B470000F946000088
:105190005D470000000000006D46000000000000B8
:1051A000000000000080005002000000000000002D
:1051B000B451000000800050C05100000100000008
:1051C000C851000004000000140000001300020099
:1051D0009601010095010300EB4700004521000006
:1051E000DD47000009220000CD470000000000005C
:1051F0000002000000040000000800000010000091
:105200000000000000020000000400000008000090
:1052100000100000304E0000304E0000504E0000E4
:10522000504E0000584E0000584E00000300000091
:10523000000000000000000000000000000000006E
:10524000000000000000000000000000FE9BDFEEF8
:1052500085FD2F01216C1ADF52051943FFFFFFFF67
:10526000FEFFFFFFFFFFFFFF00000000512563FC72
:10527000C2CAB9F3849E17A7ADFAE6BCFFFFFFFFD1
:10528000FFFFFFFF00000000FFFFFFFF982F8A4293
:1052900091443771CFFBC0B5A5DBB5E95BC2563988
:1052A000F111F159A4823F92D55E1CAB98AA07D8A0
:1052B000015B8312BE853124C37D0C55745DBE72C3
:1052C000FEB1DE80A706DC9B74F19BC1C1699BE443
:1052D0008647BEEFC69DC10FCCA10C246F2CE92DD3
:1052E000AA84744ADCA9B05CDA88F97652513E98F7
:1052F0006DC631A8C82703B0C77F59BFF30BE0C6FE
:105300004791A7D55163CA0667292914850AB7278B
:1053100038211B2EFC6D2C4D130D385354730A6528
:10532000BB0A6A762EC9C281852C7292A1E8BFA2FF
:105330004B661AA8708B4BC2A3516CC719E892D167
:10534000240699D685350EF470A06A1016C1A419EA
:10535000086C371E4C774827B5BCB034B30C1C39E9
:105360004AAAD84E4FCA9C5BF36F2E68EE828F74A8
:105370006F63A5781478C8840802C78CFAFFBE90C2
:10538000EB6C50A4F7A3F9BEF27871C6AAAAAAAA38
:10539000AAAAAAAAAAAAAAAA555555555555555515
:1053A000555555550000000055555555522563FC7F
:1053B000C2CAB9F3849E17A7ADFAE6BCFFFFFFFF90
:1053C000FFFFFFFF00000000FFFFFFFF512563FC10
:1053D000C2CAB9F3849E17A7ADFAE6BCFFFFFFFF70
:1053E000FFFFFFFF00000000FFFFFFFF96C298D8FD
:1053F0004539A1F4A033EB2D817D0377F240A463FE
:10540000E5E6BCF847422CE1F2D1176BF551BF3706
:105410006840B6CBCE5E316B5733CE2B169E0F7CD9
:105420004AEBE78E9B7F1AFEE242E34F4B60D227A6
:105430003E3CCE3BF6B053CCB0061D65BC8698769C
:1054400055BDEBB3E7933AAAD835C65AFCFFFFFF28
:10545000FFFFFFFFFFFFFFFF000000000000000054
:105460000000000001000000FFFFFFFF41747465B1
:105470006D7074696E6720746F20626F6F74207333
:105480006C6F742025642E0D0A004E6F2066775FC6
:10549000696E666F2073747275637420666F756EC3
:1054A000642E0D0A00417474656D7074696E672016
:1054B000746F20626F6F742066726F6D2061646418
:1054C0007265737320307825782E0A0D0046616965
:1054D0006C656420746F2076616C69646174652CFE
:1054E000207065726D616E656E746C7920696E7680
:1054F000616C69646174696E67210A0D00466972A6
:105500006D776172652076657273696F6E202564B0
:105510000D0A004661696C656420746F20726561D4
:105520006420746865206D6F6E6F746F6E696320A0
:10553000636F756E746572210A0D00576520617383
:1055400073756D652074686973206973206475656F
:1055500020746F20746865206669726D776172656A
:105560002076657273696F6E206E6F742062656954
:105570006E6720656E61626C65642E0A0D0046617F
:10558000696C656420746F2070726F746563742039
:10559000423020666C6173682C2063616E63656CB9
:1055A00020737461727475702E0A0D004E6F206244
:1055B0006F6F7461626C6520696D61676520666FED
:1055C000756E642E2041626F7274696E6720626F1F
:1055D0006F742E0A0D0063627072696E74665F707C
:1055E00061636B61676500286E696C2900736F6386
:1055F00000636C6F636B403530303000636C6F63F9
:105600006B5F636F6E74726F6C007561727440389B
:1056100030303000756172745F6E7266785F7561EC
:1056200072746500666174616C5F6572726F72009E
:10563000426F6F74696E67202830782578292E0DA7
:105640000A0053657474696E67206D6F6E6F746FB6
:105650006E696320636F756E74657220287665725B
:1056600073696F6E3A2025642C20736C6F743A2036
:105670002564290D0A004661696C656420647572B1
:10568000696E672072656164696E67206F66207459
:105690006865206E756D626572206F66207468653E
:1056A00020636F756E74657220736C6F74732C2039
:1056B0006572726F723A2025640D0A004D6F6E6F2D
:1056C000746F6E69632076657273696F6E20636FA5
:1056D000756E7465722069732064697361626C65AC
:1056E000642E0D0A004661696C65642064757269F8
:1056F0006E672073657474696E6720746865206DC9
:105700006F6E6F746F6E696320636F756E74657210
:105710002C206572726F723A2025640D0A00496E62
:1057200076616C6964206669726D77617265206963
:105730006E666F20666F726D61742E0A0D0054687C
:1057400065206669726D7761726520646F65736E3E
:1057500027742062656C6F6E6720617420646573C6
:1057600074696E6174696F6E20616464722E0A0DD3
:105770000073726320616E6420647374206D7573AE
:105780007420626520657175616C20666F72206C93
:105790006F63616C2063616C6C732E0A0D00466947
:1057A000726D7761726520696E666F20646F6573D4
:1057B0006E277420706F696E7420746F2069747323
:1057C000656C662E0A0D00466972776D6172652000
:1057D000686173206265656E20696E76616C6964CC
:1057E000617465643A20307825782E0A0D00436193
:1057F0006E6E6F74207265616420746865206669DE
:10580000726D776172652076657273696F6E2E2096
:1058100025640A0D004669726D77617265207665B0
:105820007273696F6E202825752920697320736D46
:10583000616C6C6572207468616E206D6F6E6F7440
:105840006F6E696320636F756E74657220282575AD
:10585000292E0A0D00496E76616C69642073697A9D
:1058600065206F7220746F74616C5F73697A652054
:10587000696E206669726D7761726520696E666F08
:105880002E0A0D004669726D7761726520696E6639
:105890006F206973206E6F742077697468696E2059
:1058A0007369676E656420726567696F6E2E0A0D95
:1058B00000426F6F74206164647265737320697352
:1058C000206E6F742077697468696E207369676EE3
:1058D000656420726567696F6E2E0A0D00526573EC
:1058E00065742068616E646C6572206973206E6FE8
:1058F000742077697468696E207369676E656420C7
:10590000726567696F6E2E0A0D00436F756C6420B7
:105910006E6F742066696E642076616C69642066BF
:1059200069726D776172652076616C696461746912
:105930006F6E20696E666F2E0A0D0056616C696489
:105940006174696F6E20696E666F20646F65736E37
:1059500027742062656C6F6E6720746F20746869AD
:1059600073206669726D776172652E0A0D00626C34
:105970005F63727970746F5F696E69742829207231
:10598000657475726E65642025642E0A0D00766557
:10599000726966795F7075626C69635F6B65797354
:1059A00028292072657475726E65642025642E0A3C
:1059B0000D0041207075626C6963206B657920630E
:1059C0006F6E7461696E73203078464646462C20AF
:1059D000776869636820697320756E737570706F7E
:1059E000727465640A0D004B657920256420686136
:1059F00073206265656E20696E76616C696461749E
:105A000065642C20747279206E6578742E0A0D00FE
:105A10007075626C69635F6B65795F646174615F07
:105A200072656164206661696C65643A2025642E44
:105A30000A0D00566572696679696E672073696739
:105A40006E617475726520616761696E7374206B35
:105A500065792025642E0A0D00486173683A20306C
:105A600078253032782E2E2E253032780D0A0049D6
:105A70006E76616C69646174696E67206B6579200C
:105A800025642E0A0D004669726D77617265207378
:105A900069676E617475726520766572696669659D
:105AA000642E0A0D005075626C6963206B65792065
:105AB0006469646E2774206D617463682C2074724D
:105AC00079206E6578742E0A0D004669726D7761D3
:105AD00072652076616C69646174696F6E206661BD
