:020000022000DC
:108200002886002085260300FF4305003D26030045
:108210003D2603003D2603003D2603003D260300C6
:108220000000000000000000000000008D110300AD
:108230003D26030000000000F51003003D2603006A
:108240003512030035120300351203003512030006
:1082500035120300351203003512030035120300F6
:1082600035120300351203003512030035120300E6
:1082700035120300351203003512030035120300D6
:1082800035120300351203003512030035120300C6
:1082900035120300351203003512030035120300B6
:1082A00035120300351203003512030035120300A6
:1082B0003512030035120300351203003512030096
:1082C0003512030035120300351203003512030086
:1082D0003512030035120300351203003512030076
:1082E0003512030035120300351203003512030066
:1082F0003512030035120300351203003512030056
:108300003512030035120300351203003512030045
:108310003512030035120300351203003512030035
:108320003512030035120300351203003512030025
:108330003512030035120300351203003512030015
:108340003512030035120300351203003512030005
:1083500035120300000000000000000000000000D3
:10836000000000000000000000000000000000000D
:1083700000000000000000000000000000000000FD
:1083800000000000000000000000000000000000ED
:1083900000000000000000000000000000000000DD
:1083A00000000000000000000000000000000000CD
:1083B00000000000000000000000000000000000BD
:1083C00000000000000000000000000000000000AD
:1083D000000000000000000000000000000000009D
:1083E000000000000000000000000000000000008D
:1083F000000000000000000000000000000000007D
:10840000DEE61E284CBBCE8F023500003C0000008B
:10841000F8DA03000100000000820200008202007E
:10842000FFFF0291000000000000000000000000BB
:0C84300000000000000000000000000040
:04843C00FFFFFFFF40
:1084400081F0004102E000BF83F0004330B54FEA05
:1084500041044FEA430594EA050F08BF90EA020F72
:108460001FBF54EA000C55EA020C7FEA645C7FEA05
:10847000655C00F0E2804FEA5454D4EB5555B8BF28
:108480006D420CDD2C4480EA020281EA030382EA99
:10849000000083EA010180EA020281EA0303362D2B
:1084A00088BF30BD11F0004F4FEA01314FF4801CFE
:1084B0004CEA113102D0404261EB410113F0004F10
:1084C0004FEA03334CEA133302D0524263EB4303C7
:1084D00094EA050F00F0A780A4F10104D5F1200E65
:1084E0000DDB02FA0EFC22FA05F2801841F10001C0
:1084F00003FA0EF2801843FA05F359410EE0A5F194
:1085000020050EF1200E012A03FA0EFC28BF4CF0C4
:10851000020C43FA05F3C01851EBE37101F000457A
:1085200007D54FF0000EDCF1000C7EEB00006EEB87
:108530000101B1F5801F1BD3B1F5001F0CD3490811
:108540005FEA30004FEA3C0C04F101044FEA445268
:1085500012F5800F80F09A80BCF1004F08BF5FEAEF
:10856000500C50F1000041EB045141EA050130BDCF
:108570005FEA4C0C404141EB0101013C28BFB1F5E1
:10858000801FE9D291F0000F04BF01460020B1FA2C
:1085900081F308BF2033A3F10B03B3F120020CDAFF
:1085A0000C3208DD02F1140CC2F10C0201FA0CF0DD
:1085B00021FA02F10CE002F11402D8BFC2F1200C42
:1085C00001FA02F120FA0CFCDCBF41EA0C019040F8
:1085D000E41AA2BF01EB0451294330BD6FEA040441
:1085E0001F3C1CDA0C340EDC04F11404C4F120022C
:1085F00020FA04F001FA02F340EA030021FA04F33E
:1086000045EA030130BDC4F10C04C4F1200220FA94
:1086100002F001FA04F340EA0300294630BD21FAD2
:1086200004F0294630BD94F0000F83F4801306BF98
:1086300081F480110134013D4EE77FEA645C18BF8C
:108640007FEA655C29D094EA050F08BF90EA020F23
:1086500005D054EA000C04BF1946104630BD91EA1B
:10866000030F1EBF0021002030BD5FEA545C05D11E
:108670004000494128BF41F0004130BD14F580045D
:108680003CBF01F5801130BD01F0004545F0FE41D1
:1086900041F470014FF0000030BD7FEA645C1ABF06
:1086A000194610467FEA655C1CBF0B46024650EA3D
:1086B000013406BF52EA033591EA030F41F4002169
:1086C00030BD00BF90F0000F04BF0021704730B5EF
:1086D0004FF4806404F132044FF000054FF00001C4
:1086E00050E700BF90F0000F04BF0021704730B585
:1086F0004FF4806404F1320410F0004548BF40425A
:108700004FF000013EE700BF42004FEAE2014FEAAE
:1087100031014FEA02701FBF12F07F4393F07F4F89
:1087200081F06051704732F07F4208BF704793F08C
:108730007F4F04BF41F40021704730B54FF460749F
:1087400001F0004521F000411CE700BF50EA0102A2
:1087500008BF704730B54FF000050AE050EA01024B
:1087600008BF704730B511F0004502D5404261EBBB
:1087700041014FF4806404F132045FEA915C3FF4FC
:10878000D8AE4FF003025FEADC0C18BF03325FEA99
:10879000DC0C18BF033202EBDC02C2F1200300FA4A
:1087A00003FC20FA02F001FA03FE40EA0E0021FA6F
:1087B00002F11444BDE600BF70B54FF0FF0C4CF45D
:1087C000E06C1CEA11541DBF1CEA135594EA0C0F0F
:1087D00095EA0C0F00F0DEF82C4481EA030621EA4A
:1087E0004C5123EA4C5350EA013518BF52EA033585
:1087F00041F4801143F4801338D0A0FB02CE4FF037
:108800000005E1FB02E506F00042E0FB03E54FF066
:108810000006E1FB03569CF0000F18BF4EF0010E5E
:10882000A4F1FF04B6F5007F64F5407404D25FEA5A
:108830004E0E6D4146EB060642EAC62141EA55510D
:108840004FEAC52040EA5E504FEACE2EB4F1FD0C4F
:1088500088BFBCF5E06F1ED8BEF1004F08BF5FEACD
:10886000500E50F1000041EB045170BD06F000467F
:1088700046EA010140EA020081EA0301B4EB5C042C
:10888000C2BFD4EB0C0541EA045170BD41F4801124
:108890004FF0000E013C00F3AB8014F1360FDEBF49
:1088A000002001F0004170BDC4F10004203C35DA25
:1088B0000C341BDC04F11404C4F1200500FA05F3A8
:1088C00020FA04F001FA05F240EA020001F0004249
:1088D00021F0004110EBD37021FA04F642EB0601BF
:1088E0005EEA430E08BF20EAD37070BDC4F10C04E9
:1088F000C4F1200500FA04F320FA05F001FA04F2AD
:1089000040EA020001F0004110EBD37041F1000198
:108910005EEA430E08BF20EAD37070BDC4F12005A3
:1089200000FA05F24EEA020E20FA04F301FA05F20B
:1089300043EA020321FA04F001F0004121FA04F2B3
:1089400020EA020000EBD3705EEA430E08BF20EA83
:10895000D37070BD94F0000F0FD101F000464000BD
:1089600041EB010111F4801F08BF013CF7D041EA3F
:10897000060195F0000F18BF704703F00046520043
:1089800043EB030313F4801F08BF013DF7D043EA14
:108990000603704794EA0C0F0CEA135518BF95EACA
:1089A0000C0F0CD050EA410618BF52EA4306D1D151
:1089B00081EA030101F000414FF0000070BD50EA70
:1089C000410606BF1046194652EA430619D094EAFA
:1089D0000C0F02D150EA013613D195EA0C0F05D1E4
:1089E00052EA03361CBF104619460AD181EA030138
:1089F00001F0004141F0FE4141F470014FF00000F0
:108A000070BD41F0FE4141F4780170BD70B54FF08A
:108A1000FF0C4CF4E06C1CEA11541DBF1CEA13550A
:108A200094EA0C0F95EA0C0F00F0A7F8A4EB0504EC
:108A300081EA030E52EA03354FEA013100F08880E3
:108A40004FEA03334FF0805545EA131343EA1263AC
:108A50004FEA022245EA111545EA10654FEA002661
:108A60000EF000419D4208BF964244F1FD0404F51A
:108A7000407402D25B084FEA3202B61A65EB030576
:108A80005B084FEA32024FF480104FF4002CB6EB33
:108A9000020E75EB030E22BFB61A754640EA0C00B3
:108AA0005B084FEA3202B6EB020E75EB030E22BFF3
:108AB000B61A754640EA5C005B084FEA3202B6EB34
:108AC000020E75EB030E22BFB61A754640EA9C00F3
:108AD0005B084FEA3202B6EB020E75EB030E22BFC3
:108AE000B61A754640EADC0055EA060E18D04FEA81
:108AF000051545EA16754FEA06164FEAC30343EA21
:108B000052734FEAC2025FEA1C1CC0D111F4801FED
:108B10000BD141EA00014FF000004FF0004CB6E7E6
:108B200011F4801F04BF01430020B4F1FD0C88BF85
:108B3000BCF5E06F3FF6AFAEB5EB030C04BFB6EB90
:108B4000020C5FEA500C50F1000041EB045170BD83
:108B50000EF0004E4EEA113114EB5C04C2BFD4EBB0
:108B60000C0541EA045170BD41F480114FF0000E34
:108B7000013C90E645EA060E8DE60CEA135594EAB0
:108B80000C0F08BF95EA0C0F3FF43BAF94EA0C0FB3
:108B90000AD150EA01347FF434AF95EA0C0F7FF428
:108BA00025AF104619462CE795EA0C0F06D152EA7C
:108BB00003353FF4FDAE1046194622E750EA410660
:108BC00018BF52EA43067FF4C5AE50EA41047FF471
:108BD0000DAF52EA43057FF4EBAE12E74FEA4102D4
:108BE000B2F1E04324BFB3F5001CDCF1FE5C0DD90B
:108BF00001F0004C4FEAC0024CEA5070B2F1004F55
:108C000040EB830008BF20F00100704711F0804F57
:108C100021D113F13872BCBF01F00040704741F41C
:108C200080114FEA5252C2F11802C2F1200C10FA20
:108C30000CF320FA02F018BF40F001004FEAC12304
:108C40004FEAD32303FA0CFC40EA0C0023FA02F3A8
:108C50004FEA4303CCE77FEA625307D150EA01337E
:108C60001EBF4FF0FE4040F44000704701F000404E
:108C700040F0FE4040F40000704700BF53B94AB9CD
:108C8000002908BF00281CBF4FF0FF314FF0FF3014
:108C900000F00CB8ADF1080C6DE904CE00F008F856
:108CA000DDF804E0DDE9022304B07047704700BF3F
:108CB0002DE9F04786468C460846089E15467446C0
:108CC0001946002B40F0C1808542B2FA82F245D9A4
:108CD0004AB1C2F1200300FA02FC954094402EFAFA
:108CE00003F343EA0C0C4FEA154EA8B2230CBCFB6D
:108CF000FEF80EFB18CC08FB00F943EA0C4399453B
:108D000028D9EB1808F1FF3704D2994502D9A8F108
:108D100002072B44A3EB0903A4B2B3FBFEFC0EFB3A
:108D20001C330CFB00F044EA0344A04214D92C1974
:108D30000CF1FF3304D2A04202D9ACF102032C445F
:108D4000241A43EA07401EB1D44000233460736004
:108D5000BDE8F0874746DDE76346F1E792BB431B7A
:108D600001214FEA154EAFB2200CB3FBFEFC0EFB07
:108D70001C330CFB07F840EA0343984561D9EB1814
:108D80000CF1FF3004D2984502D9ACF102002B441B
:108D9000A3EB0803A4B2B3FBFEFC0EFB1C330CFBDD
:108DA00007F744EA0344A7424DD92C190CF1FF33CD
:108DB00004D2A74202D9ACF102032C44E41B43EADB
:108DC0000040C0E7C2F120039540944020FA03F12F
:108DD0002EFA03F34FEA154E9040AFB20343B1FBB6
:108DE000FEFC0EFB1C10190C0CFB07F841EA0041BD
:108DF000884522D969180CF1FF3004D2884502D980
:108E0000ACF102002944A1EB08019BB2B1FBFEFCCE
:108E10000EFB1C110CFB07F743EA01439F420ED9DE
:108E2000EB180CF1FF3104D29F4202D9ACF10201E0
:108E30002B44DB1B41EA004193E76046E3E76146D0
:108E4000F7E76046A4E76346B8E7834206D916B958
:108E5000002108467CE7C6E900E0F9E7B3FA83F7AA
:108E60008FB9834201D3724508D8BEEB020460EB90
:108E7000030301209C461EB9002169E73846FAE742
:108E8000C6E9004CF8E7C7F1200CBB400EFA07F525
:108E900022FA0CF42EFA0CF1BA401C4320FA0CF31F
:108EA000B8404FEA144901431FFA84FEB3FBF9F8B6
:108EB00009FB18300B0C08FB0EFA43EA00439A45F5
:108EC00040D9E31808F1FF3004D29A4502D9A8F13D
:108ED00002002344A3EB0A0389B2B3FBF9F809FBB0
:108EE000183308FB0EFE41EA03418E452CD9611868
:108EF00008F1FF3304D28E4502D9A8F102032144C0
:108F000043EA0040A1EB0E01A0FB02984145CE468A
:108F1000434602D306D14D4504D20138B9EB020EC7
:108F200068EB0403002EA7D0B5EB0E0261EB030142
:108F300001FA0CFC22FA07F3F9404CEA0303C6E9F4
:108F4000003199E74046C5E74346D9E710F8012BC1
:108F500011F8013B012A28BF9A42F7D0D01A704776
:108F6000034613F8012B002AFBD1181A0138704769
:108F700010B5082140F601400DF0ECFDD8B10446D3
:108F800008210C3030F00AFA02460F4B93F8D83023
:108F900013F0010F0BD10D484FF000512CF010F8D9
:108FA0000022214640F601400DF012FE10BD04A142
:108FB000D1E90001F2E76FF06800F7E7AFF3008056
:108FC00090880002008000203000002010880002FD
:108FD00030B589B004460C9D0020C4F8F800C4F8F0
:108FE000FC0004F58070C4F80001C4F8040104F525
:108FF0008470C4F80801C4F80C01EDB12879E8B90F
:109000000120C4F810019FED107B8DED067B002040
:10901000049003930290019000940D4B204633F08E
:109020009FFA25B1296811B1204624F02FFE204671
:1090300033F086FA09B030BD0120E2E740F20110BA
:10904000DFE700BFAFF30080FFFFFFFFFFFFFFFF81
:109050000DE404000000000010B582B004460023B7
:1090600004320ED27BB99FED0A7B8DED007B41F07F
:109070000401204633F089F908B140F8044B02B0EE
:1090800010BD0123EEE70020F9E700BFAFF3008039
:109090000000000000000000F0B583B000AF2348DE
:1090A00021F0B4FC0446B8B36D4688B06B4613F1AA
:1090B000100235D010215AB10846042901DD1C4E9A
:1090C0005E61082801DD1B4E9E610C2800DDDC611D
:1090D0000F2928DD4FF0100C3AB10421397100211D
:1090E0007971B971F9717868186100216FF3000125
:1090F0006FF341016FF382016FF3C501012363F345
:109100008811CCF30A0C6CF353216FF31F51002329
:10911000094805F08BFEAD4620460C37BD46F0BD34
:109120006FF00041C7E76FF01B0CD5E73D910200DF
:10913000D8E2050030E30500F8DE0500B0B582B0E6
:1091400000AF05460C4611F0020F02D010F0020FDE
:1091500049D014F0080F43D015F0080F40D16D46E8
:1091600088B06B4613F1100240D010216AB1084656
:10917000042901DD204C5C61082801DD1F4C9C6145
:109180000C2802DD4FF4FA60D8610F2931DD10247C
:109190003AB10421397100217971B971F971786896
:1091A000186100216FF300016FF341016FF3820139
:1091B0006FF3C501022363F38811C4F30A0464F357
:1091C00053216FF31F5100230D4805F02FFEAD46CC
:1091D00002F006F800F0F8FA4FF4FA6000F008FE2A
:1091E0000837BD46B0BD01F053FFB2E76FF0004154
:1091F000BCE76FF01B04CBE7FCE2050020E30500B1
:10920000F8DE0500B0B582B000AFA8E06D4688B0CA
:109210006B4613F110022ED00C2142B108460429EE
:1092200001DDB74C5C61082801DDB64898610B2967
:1092300024DD0C243AB10321397100217971B9710F
:10924000F9717868186100216FF300016FF3410133
:109250006FF382016FF3C501012363F38811C4F337
:109260000A0464F353216FF31F510023A64805F04D
:10927000DDFDAD4655E26FF00041CEE76FF01B0417
:10928000D8E7A24827F0EFF9002874DA6D4688B0D5
:109290006B4613F110022ED00C2142B1084604296E
:1092A00001DD974C5C61082801DD964898610B2927
:1092B00024DD0C243AB10321397100217971B9718F
:1092C000F9717868186100216FF300016FF34101B3
:1092D0006FF382016FF3C501012363F38811C4F3B7
:1092E0000A0464F353216FF31F510023864805F0ED
:1092F0009DFDAD4615E26FF00041CEE76FF01B0417
:10930000D8E701221C21824827F0A0F900287DDB44
:10931000FB78622B40F2098101221F217C4827F053
:1093200095F90028C0F2B3800A217A4827F06EF937
:10933000002840F33D8101221E21754827F086F95F
:10934000041EC0F2BA8100221C21714827F07EF968
:10935000204300F1EF814FF47A7027F08EF901F08D
:109360004FFF00288DD001221D21694827F06EF99A
:109370000028FFF64BAF0023FB7063220023F91C8B
:10938000654824F0CBFD0028CED1FB780F2BB8D94F
:109390001E2BBDD900221C215D4827F057F900285B
:1093A000B6DA6D4688B06B4613F1100269D00C2115
:1093B00042B10846042901DD584C5C61082801DDF2
:1093C000504898610B295FDD0C243AB103213971B3
:1093D00000217971B971F9717868186100216FF312
:1093E00000016FF341016FF382016FF3C5010123A7
:1093F00063F38811C4F30A0464F353216FF31F511C
:109400000023414805F012FDAD468AE16D4688B063
:109410006B4613F110022ED00C2142B108460429EC
:1094200001DD3E4C5C61082801DD364898610B295E
:1094300024DD0C243AB10321397100217971B9710D
:10944000F9717868186100216FF300016FF3410131
:109450006FF382016FF3C501012363F38811C4F335
:109460000A0464F353216FF31F510023264805F0CB
:10947000DDFCAD4655E16FF00041CEE76FF01B0417
:10948000D8E76FF0004193E76FF01B049DE76D464E
:1094900088B06B4613F110022ED00C2142B1084661
:1094A000042901DD1E4C5C61082801DD1548986126
:1094B0000B2937DD0C243AB1032139710021797170
:1094C000B971F9717868186100216FF300016FF3C9
:1094D00041016FF382016FF3C501012363F388112A
:1094E000C4F30A0464F353216FF31F5100230648A9
:1094F00005F09CFCAD4614E16FF00041CEE700BFE3
:1095000044E3050018E40500F0DE05003CE4050036
:1095100094DA05007CDA0500940B002064E3050072
:1095200084E305006FF01B04C5E700221F219F485C
:1095300027F08CF80028BFF6F7AE6D4688B06B4672
:1095400013F110022ED00C2142B10846042901DD8E
:10955000974C5C61082801DD964898610B2924DD51
:109560000C243AB10321397100217971B971F97173
:109570007868186100216FF300016FF341016FF308
:1095800082016FF3C501012363F38811C4F30A0458
:1095900064F353216FF31F510023874805F046FC05
:1095A000AD46BEE06FF00041CEE76FF01B04D8E798
:1095B00000221E217D4827F049F8041E3CDB0022D2
:1095C0001F217A4827F042F820437FF5C4AE6D464C
:1095D00088B06B4613F1100269D00C2142B10846E5
:1095E000042901DD754C5C61082801DD7148986132
:1095F0000B295FDD0C243AB1032139710021797107
:10960000B971F9717868186100216FF300016FF387
:1096100041016FF382016FF3C501012363F38811E8
:10962000C4F30A0363F353216FF31F51002362480D
:1096300005F0FCFBAD4674E06D4688B06B4613F157
:1096400010022ED00C2142B10846042901DD5C4CE9
:109650005C61082801DD574898610B2924DD0C2442
:109660003AB10321397100217971B971F9717868C2
:10967000186100216FF300016FF341016FF3820164
:109680006FF3C501012363F38811C4F30A0363F385
:1096900053216FF31F510023474805F0C7FBAD4628
:1096A0003FE06FF00041CEE76FF01B04D8E76FF0AA
:1096B000004193E76FF01B049DE76D4688B06B4651
:1096C00013F1100230D00C2142B10846042901DD0B
:1096D0003B4C5C61082801DD364898610B2926DD8A
:1096E0000C243AB10321397100217971B971F971F2
:1096F0007868186100216FF300016FF341016FF387
:1097000082016FF3C501012363F38811C4F30A03D7
:1097100063F353216FF31F510023274805F086FBA5
:10972000AD460837BD46B0BD6FF00041CCE76FF0E5
:109730001B04D6E76D4688B06B4613F110022ED09D
:109740000C2142B10846042901DD1E4C5C61082849
:1097500001DD184898610B2924DD0C243AB103215E
:10976000397100217971B971F97178681861002136
:109770006FF300016FF341016FF382016FF3C501D5
:10978000012363F38811C4F30A0363F353216FF3D6
:109790001F510023084805F049FBAD46C1E76FF0B3
:1097A0000041CEE76FF01B04D8E700BF94DA050054
:1097B00084E3050018E40500F0DE0500C4E30500BD
:1097C000A4E3050064E3050038B5114808F0DEFFA6
:1097D000104D00221C21284626F038FF04460022A6
:1097E0001D21284626F032FF044300221E21284670
:1097F00026F02CFF044300221F21284626F026FFD6
:10980000044300D138BD044827F0A9FBFAE700BFA4
:10981000300E002094DA0500E4E3050038B5314D40
:10982000284632F092FD80F00104E4B24FF4C021EA
:109830002D4826F0D4FE0443284632F086FD80F001
:109840000100C0B204434FF4C021284826F0C7FEEF
:109850000443284632F079FD80F00100C0B2044391
:109860004FF4C021224826F0BAFE0443284632F0C5
:109870006CFD80F00100C0B204434FF4C0211D48CC
:1098800026F0ADFE044300221C21284626F0DEFE11
:10989000044300221D21284626F0D8FE044300225E
:1098A0001E21284626F0D2FE044300221F2128460E
:1098B00026F0CCFE04430DD10F4832F046FD80F077
:1098C0000104E4B24FF480310C4826F088FE0443D2
:1098D00004D138BD0A4827F042FBEDE7094827F0DC
:1098E0003EFBF6E794DA050044E405003CE405009D
:1098F00034E405002CE405007CDA050024E40500CE
:10990000F8E3050008E4050000B583B000238DF8F6
:109910000730002200230DF10701034824F0A2FACA
:1099200003B05DF804FB00BFC40B002030B591B05C
:109930008E4694461D46164B0993164B0A934FF4D8
:109940008373ADF82C300024ADF82E40124A0DABD5
:1099500007CA83E807000C930194029403940494CB
:1099600005940694079408948DF804E01F232A4672
:1099700061460DF1050033F00BFD0135074B5D60CD
:1099800001AA1A60064909A826F0D2FE11B030BD1E
:109990000CDB0500A025260070E10500342800201E
:1099A00074E40500F0B593B017461E468DF8071015
:1099B0001C4B0B931C4B0C934FF48373ADF834305A
:1099C0000024ADF83640194B0FAD93E8070085E849
:1099D00007000E9503940494059406940794089444
:1099E00009940A94721C12494A609DF8073063F08A
:1099F0007F038DF807300DF107030B600D4B5A60A4
:109A000003AA1A600C4A0D490BA826F086FE0446EC
:109A100028B932460DF10D01384633F0ACFC204632
:109A200013B0F0BD0CDB0500A025260070E1050099
:109A3000342800203C2800207CE4050074E4050064
:109A400038B5144A138801339BB2138012490A783F
:109A5000124C02EB040C0568D0F804E08068A550B5
:109A6000CCF804E0CCF808000C320A70092B01D8BD
:109A7000002038BD01F0C4FB30B900200023064AA5
:109A80001370044A1380F4E7034B1978204601F061
:109A9000F3FCF3E7884900208E4900205428002079
:109AA00030B583B0054600238DF807300DF107016E
:109AB000114826F013FF044610B99DF807307BB912
:109AC0000DF107010C4826F018FF044302D19DF860
:109AD00007305BB92846FFF7B3FF204303B030BD22
:109AE0002946054826F03AFF0443E9E7A91D024844
:109AF00026F012FF0443EDE7442800202DE9F0434F
:109B000085B0FF238DF80F300026ADF80C608DF87E
:109B10000E609DF80C3043F001038DF80C30DBB281
:109B200043F002038DF80C30F3B243F001038DF8DB
:109B30000E30DBB243F002038DF80E300096019632
:109B40000296334D334B6B60334B2B60334F4FF4E6
:109B50000068C7F80880DFF8D490C7F80490232085
:109B600026F0F0FD0DF10F01284626F019FF0446FE
:109B70003146284627F01EF804433146284626F091
:109B800017FE04430121284626F076FE04430621F1
:109B9000284626F026FE04433146284626F03AFEA3
:109BA00004430121284626F080FE0443062128466E
:109BB00026F049FE0443C7F80490C7F80880DFF890
:109BC00068803946404626F09EFD154A0B214046E6
:109BD00026F069FD04430399284626F0E8FE044375
:109BE000104B1E8005E06846FFF75AFF012026F063
:109BF000A9FD0B210C4826F076FD28B1094A1388EF
:109C0000591C1180092BEED9204605B0BDE8F08320
:109C100044280020A59902002D9902002828002040
:109C2000000041058A4900207CDA050009990200FC
:109C300000B585B0FFF762FF00238DF80330019374
:109C400002930393632200230DF103010E4824F0D5
:109C500065F918B901A8FFF723FFEDE70B4B0022C8
:109C60001A800B210A4826F03EFD0028E4D0074A5E
:109C70001388591C1180092BDED801A8FFF710FFAB
:109C8000642025F02BF8ECE7C40B00208A49002063
:109C90007CDA050010B500240CE004EB84025301CB
:109CA0000748184401F0B0FC064800EB440026F0D9
:109CB000B4FF0134022CF0DD034801F009FD10BDB2
:109CC000502F0020482F002098E4050070B592B076
:109CD000FFF7E0FF002654E003EB430222442F4944
:109CE00031F913002E4921F8120001331F2BF3D94B
:109CF00001260134022C3ADC04EB8400274A12AB23
:109D000003EB440333F9081C264B03EB401001F02E
:109D100087FC0028EDD0214E01222021304626F07C
:109D20007FFFEC46B646BEE80F00ACE80F00BEE889
:109D30000F00ACE80F00BEE80F00ACE80F009EE893
:109D40000F008CE80F003346202269464FF4CA7C8E
:109D500015480CFB040001F0C3FC202332463146B9
:109D6000124800EB440001F025FC2B46BEE746B14B
:109D700001F046FA064620B1C021094801F070FB07
:109D800000264FF0FF324FF0FF3310A9084824F0AF
:109D9000C5F805460028F4D10446ABE7082F00209B
:109DA000882D0020502F0020CC280020482F002094
:109DB000240C002000B585B006238DF80430002067
:109DC0008DF80500029003904FF05023D3F8002443
:109DD000C3F8002401A905F0F3FB10B105B05DF84C
:109DE00004FB024827F0BBF8F8E700BFA0E4050039
:109DF00008B5410CC00340F2E733C0184FF47A7243
:109E00004FF0000341F10001FEF738FF02460B4618
:109E1000014824F0CDFB08BD0000002040F63403CB
:109E2000984225DD0123052B20D8124A32F9232040
:109E3000824201DA0133F6E700B503F1FF3C0D4938
:109E400031F92CE0A0EB0E00A2EB0E0201EB830334
:109E50009B7801EB8C0189785B1A03FB00F090FB87
:109E6000F2F051FA80F0C0B25DF804FB6420704754
:109E700000207047B4E4050000B583B00DF1060082
:109E800001F07AFBBDF90630002B1CDBBDF9063072
:109E90004FF4616202FB03F30D48A0FB03201B1A81
:109EA00000EB5300C00AFFF7B9FF8DF8050026F05C
:109EB0005FFC002200230DF10501064823F0D2FFCC
:109EC00003B05DF804FB0023ADF80630DEE700BF09
:109ED00001011000940B002008B5024824F028FB73
:109EE00008BD00BFC802002000B583B001F03CFBF4
:109EF00010B103B05DF804FB4FF470220023CDE9EC
:109F000000234FF400420023014825F02DF9F0E72B
:109F1000080A0020F0B583B000AFB1F800C04D884A
:109F20008E88CC888CB06B4613F1100241D01C2077
:109F3000CAB10146042803DDDFF888E0C3F814E065
:109F4000082903DDDFF880E0C3F818E00C2901DD03
:109F5000C3F81CC0102900DD1E62142900DD5D62FB
:109F6000182900DD9C621B2826DD4FF01C0C3AB13D
:109F70000721397100217971B971F9717868186117
:109F800000216FF300016FF341016FF382016FF362
:109F9000C501032363F38811CCF30A0C6CF353213E
:109FA0006FF31F510023064804F040FF0C37BD46F5
:109FB000F0BD6FF00040BBE76FF01B0CD7E700BFB0
:109FC000E0DE0500CCE4050008EA0500B0B582B08B
:109FD00000AF14468AB06B4613F1100239D014203A
:109FE0008AB18446042801DD1D4D5D61BCF1080F76
:109FF00001DD1C4D9D61BCF10C0F00DDD961BCF190
:10A00000100F00DD1C62132826DD4FF0140C3AB14E
:10A010000521397100217971B971F9717868186178
:10A0200000216FF300016FF341016FF382016FF3C1
:10A03000C501032363F38811CCF30A0C6CF353219D
:10A040006FF31F510023084804F0F0FE0837BD46A7
:10A05000B0BD6FF00040C3E76FF01B0CD7E700BF47
:10A0600008E505004CE90500E0DE0500F0B58BB021
:10A0700004460D4616460378032B38D8DFE803F074
:10A0800002212B311D4B93E803000790ADF82010FF
:10A09000090C8DF8221063792279E178A07867782D
:10A0A0000DF11C0CCDF814C004970390029101929D
:10A0B0000093A379124A3146284626F05EFF0BB082
:10A0C000F0BD104B93E803000790ADF82010090C89
:10A0D0008DF82210DFE70C4A07AB07CA03C31A80CA
:10A0E000D9E70A4A07AB07CA03C31A80D3E7084A6D
:10A0F0000A2107A826F041FFCDE700BF30E50500A3
:10A1000040E5050038E5050064E5050070E505005B
:10A11000DC320600F0B58BB000AF0E4614462BF0D3
:10A120007FFF1E2207F10801FFF7A0FF002C66D079
:10A130006D4601233B7103237B718CB0EC461CF10F
:10A14000100224D01A2052B10346042802DD5A49D5
:10A15000CCF81410082B02DD584BCCF81830012332
:10A160003B7003237B70FAB103460C2803DD07F133
:10A170000801CCF81C10102B01DDCCF82060142B4A
:10A1800001DDCCF824400CF1280300210AE06FF037
:10A190000040D8E701F128043C4414F8284C03F8A7
:10A1A000014B01310129F5D9192825DD1A234AB1BE
:10A1B0000621397100217971B9710121F97178682D
:10A1C000CCF8100000216FF300016FF341016FF331
:10A1D00082016FF3C501012060F38811C3F30A0304
:10A1E00063F353216FF31F510023354804F01EFE23
:10A1F000AD462C37BD46F0BD6FF01B03D7E76C466C
:10A2000001233B7103237B718AB06D4615F1100267
:10A210001CD0162042B10346042801DD294969619A
:10A22000082B01DD254BAB6101233B7003237B70C1
:10A23000CAB103460C2802DD07F10801E961102BC1
:10A2400000DD2E6205F1240300210AE06FF00040DA
:10A25000E0E701F128063E4416F8286C03F8016B8C
:10A2600001310129F5D9152822DD162342B1052136
:10A27000397100217971B9710121F971786828610A
:10A2800000216FF300016FF341016FF382016FF35F
:10A29000C501032060F38811C3F30A0363F353215C
:10A2A0006FF31F510023064804F0C0FDA546A0E748
:10A2B0006FF01B03DAE700BF7CE50500F4E9050059
:10A2C000E0DE0500A4E50500B0B582B000AF6C4645
:10A2D00088B06B4613F1100240D010206AB184465A
:10A2E000042801DD224D5D61BCF1080F01DD214D27
:10A2F0009D61BCF10C0F00DDD9610F2831DD4FF0FD
:10A30000100C3AB10421397100217971B971F971D8
:10A310007868186100216FF300016FF341016FF35A
:10A3200082016FF3C501032363F38811CCF30A0C98
:10A330006CF353216FF31F5100230F4804F076FD97
:10A34000A5460E4B18682BF06BFD0D4B1B785BB1CF
:10A350000C4B00221A700837BD46B0BD6FF00040AC
:10A36000BCE76FF01B0CCCE7074824F0E1F8EFE7FF
:10A37000C8E50500E4E90500E0DE05004431002001
:10A380008F49002090490020D8020020F0B583B00A
:10A3900000AF264B1B687B60391D254B18682BF0DE
:10A3A00041FE002838D005466C4688B06B4613F154
:10A3B000100234D010215AB10846042901DD1D4E87
:10A3C0005E61082801DD1C4E9E610C2800DDDD6108
:10A3D0000F2927DD4FF0100C3AB10421397000210C
:10A3E0007970B970F9703868186100216FF3000155
:10A3F0006FF341016FF382016FF3C501012363F332
:10A400008811CCF30A0C6CF353216FF31F51002316
:10A410000A4804F00BFDA5460C37BD46F0BD6FF0B1
:10A420000041C8E76FF01B0CD6E700BF7CE10500D8
:10A4300044310020ECE50500C0E90500E0DE050040
:10A44000F0B583B000AF0446414B424A1A606D46F6
:10A4500088B06B4613F110026ED00C2142B1084651
:10A46000042901DD3C4E5E61082801DD3B4898610E
:10A470000B2964DD4FF00C0C3AB103213971002136
:10A480007971B971F9717868186100216FF3000171
:10A490006FF341016FF382016FF3C501032363F38F
:10A4A0008811CCF30A0C6CF353216FF31F51002376
:10A4B0002B4804F0BBFCAD462549204617F066FA50
:10A4C0000446B0B36D4688B06B4613F1100239D024
:10A4D00010215AB10846042901DD224E5E61082888
:10A4E00001DD1E4E9E610C2800DDDC610F292CDD94
:10A4F00010243AB10421397100217971B971F971CF
:10A500007868186100216FF300016FF341016FF368
:10A5100082016FF3C501012363F38811C4F30A04B8
:10A5200064F353216FF31F5100230D4804F07EFCA8
:10A53000AD460C37BD46F0BD6FF000418EE76FF0C1
:10A540001B0C99E76FF00041C3E76FF01B04D0E7E5
:10A5500030310020DDA7020014E60500B4E9050053
:10A56000E0DE050028E60500F0B58BB000AF04463C
:10A57000002900F0848008466D4688B06B4613F1D0
:10A58000100276D010216AB18C46042901DD8B4E71
:10A590005E61BCF1080F01DD894E9E61BCF10C0FBC
:10A5A00000DDD8610F2967DD4FF0100C3AB10421AE
:10A5B000397000217970B970F9703868186100211C
:10A5C0006FF300016FF341016FF382016FF3C50177
:10A5D000012363F38811CCF30A0C6CF353216FF35E
:10A5E0001F510023774804F021FCAD46391D204659
:10A5F00011F060FE10F0FF0F00F08380C0B26D46D6
:10A6000088B06B4613F1100275D010215AB10C4678
:10A61000042901DD6C4E5E61082C01DD684E9E61EF
:10A620000C2C00DDD8610F2968DD10243AB104211B
:10A63000397000217970B970F9703868186100219B
:10A640006FF300016FF341016FF382016FF3C501F6
:10A65000012363F38811C4F30A0363F353216FF3F7
:10A660001F510023574804F0E1FBAD462C37BD468F
:10A67000F0BD6FF0004186E76FF01B0C96E76D466A
:10A6800088B06B4613F110022FD00C2142B108465E
:10A69000042901DD4D4E5E61082801DD48489861BE
:10A6A0000B2925DD4FF00C0C3AB103213970002144
:10A6B0007970B970F9703868186100216FF3000182
:10A6C0006FF341016FF382016FF3C501032363F35D
:10A6D0008811CCF30A0C6CF353216FF31F51002344
:10A6E000384804F0A3FBAD4680E76FF00041CDE7AA
:10A6F0006FF01B0CD8E76FF0004187E76FF01B0489
:10A7000094E720462BF06FFB314B1860B7F818C068
:10A710007E8BBC8B6D468AB06B4613F1100246D01F
:10A720001820B2B10146042803DDDFF8ACE0C3F81D
:10A7300014E0082903DDDFF888E0C3F818E00C29ED
:10A7400001DDC3F81CC0102900DD1E62142900DDE4
:10A750005C6217282EDD18243AB1062139700021D9
:10A760007970B970F9703868186100216FF30001D1
:10A770006FF341016FF382016FF3C501032363F3AC
:10A780008811C4F30A0464F353216FF31F510023AB
:10A790000C4804F04BFBAD460D4C2068FFF7F6FD6E
:10A7A0002068FFF74DFE0B4B01221A705EE76FF039
:10A7B0000040B6E76FF01B04CEE700BF4CE6050093
:10A7C000D4E90500E0DE050080E6050070E605003E
:10A7D0004431002090490020A4E60500F0B583B084
:10A7E00000AF04460D4629BB51496E4601233B711B
:10A7F00003237B718AB0EC461CF110021CD012209E
:10A800005AB10346042803DDDFF838E1CCF814E040
:10A81000082B02DD474BCCF8183001233B70032393
:10A820007B70B2B10C2801DDCCF81C100CF12003B8
:10A8300000210CE04049D8E76FF00040E0E701F16B
:10A84000080EBE441EF808EC03F801EB01310129A3
:10A85000F5D9112826DD12234AB1042139710021CE
:10A860007971B9710121F9717868CCF81000002173
:10A870006FF300016FF341016FF382016FF3C501C4
:10A88000032060F38811C3F30A0363F353216FF3CA
:10A890001F510023294804F0C9FAB5462DB10C37E1
:10A8A000BD46F0BD6FF01B03D6E720462DF040FA01
:10A8B000033880B26D4688B06B4613F1100231D078
:10A8C00010215AB10C46042901DD1D4E5E61082C91
:10A8D00001DD184E9E610C2C00DDD8610F2924DDAE
:10A8E00010243AB10421397100217971B971F971DB
:10A8F0007868186100216FF300016FF341016FF375
:10A9000082016FF3C501032363F38811C4F30A03C3
:10A9100063F353216FF31F510023084804F086FAB4
:10A92000AD46BCE76FF00041CBE76FF01B04D8E702
:10A93000F0E60500A4E90500CC2E0600E0DE0500E7
:10A9400010E70500FCE60500F0B583B000AF044653
:10A950000EF022FB002841D005466E4688B06B46BB
:10A9600013F1100234D010215AB10846042901DD38
:10A970001F4C5C61082801DD1E4C9C610C2800DD29
:10A98000DD610F2927DD10243AB10421397000213F
:10A990007970B970F9703868186100216FF300019F
:10A9A0006FF341016FF382016FF3C501012363F37C
:10A9B0008811C4F30A0363F353216FF31F5100237B
:10A9C0000D4804F033FAB54628460C37BD46F0BDB5
:10A9D0006FF00041C8E76FF01B04D5E700237B60F0
:10A9E0003A1D064920461AF007FF7D68ECE700BFD4
:10A9F00034E7050080E90500E0DE05001DAD02003A
:10AA0000F0B58FB002AF0FF051FF78607B68002B7C
:10AA100039D07C686D4688B002AB13F1100200F0AB
:10AA2000C48010215AB10846042901DDAF4E5E6191
:10AA3000082801DDAE4E9E610C2800DDDC610F2987
:10AA400040F3B68010243AB10421397000217970A6
:10AA5000B970F9703868186100216FF300016FF365
:10AA600041016FF382016FF3C501012363F3881184
:10AA7000C4F30A0464F353216FF31F5100239D486C
:10AA800004F0D4F9AD460020FFF75EFF041EC0F2CB
:10AA9000928015229849994805F0B2FC002C40F0AC
:10AAA000D0806D4688B002AB13F1100200F0C38075
:10AAB0000C2142B10846042901DD914C5C61082853
:10AAC00001DD8B4898610B2940F3B8800C243AB122
:10AAD0000321397000217970B970F97038681861F4
:10AAE00000216FF300016FF341016FF382016FF3F7
:10AAF000C501032363F38811C4F30A0363F35321ED
:10AB00006FF31F5100237B4804F090F9AD4607F125
:10AB100008047C4D0FCD0FC42B68236000230093E5
:10AB20000422794907F108000FF090FE78607B68F5
:10AB3000002B77D07C686D4688B002AB13F1100211
:10AB400000F0CD8010215AB10846042901DD6F4E76
:10AB50005E61082801DD664E9E610C2800DDDC6127
:10AB60000F2940F3BF8010243AB10421397000212D
:10AB70007970B970F9703868186100216FF30001BD
:10AB80006FF341016FF382016FF3C501012363F39A
:10AB90008811C4F30A0363F353216FF31F51002399
:10ABA000544804F043F9AD463CE06FF0004139E70A
:10ABB0006FF01B0447E76D4688B002AB13F110023B
:10ABC00033D010215AB10846042901DD504E5E6190
:10ABD000082801DD464E9E610C2800DDDC610F294E
:10ABE00026DD10243AB10421397000217970B97042
:10ABF000F9703868186100216FF300016FF34101AB
:10AC00006FF382016FF3C501012363F38811C4F36D
:10AC10000A0464F353216FF31F510023354804F0F5
:10AC200005F9AD463437BD46F0BD6FF00041C9E7C8
:10AC30006FF01B04D6E76FF000413AE76FF01B049A
:10AC400045E76D4688B002AB13F1100241D01021E8
:10AC50005AB10846042901DD2E4E5E61082801DD47
:10AC6000234E9E610C2800DDDC610F2934DD1024A9
:10AC70003AB10421397000217970B970F9703868DF
:10AC8000186100216FF300016FF341016FF382013E
:10AC90006FF3C501032363F38811C4F30A0363F35D
:10ACA00053216FF31F510023124804F0BFF8AD4643
:10ACB00007F11C04184D0FCD0FC42B68236000232F
:10ACC00000930422104907F11C000FF0BFFD7860CB
:10ACD0002DE76FF00041BBE76FF01B04C8E76FF092
:10ACE000004130E76FF01B043EE700BF5CE7050062
:10ACF00094E90500E0DE0500ACE70500C4E70500C7
:10AD0000D0E7050080E1050020EA050020E8050005
:10AD100084E70500F4E7050094E105000B68002BCB
:10AD2000C0F29C802DE9F04182B000AF04460D4690
:10AD300090F801E090F802C06E468AB06B4613F1BD
:10AD400010027BD01421A2B10846042903DDDFF8EC
:10AD50001C81C3F81480082803DDDFF80C81C3F8D8
:10AD600018800C2801DDC3F81CE0102801DDC3F8B1
:10AD700020C0132965DD4FF0140C3AB1052139715B
:10AD800000217971B971F9717868186100216FF348
:10AD900000016FF341016FF382016FF3C5010323DB
:10ADA00063F38811CCF30A0C6CF353216FF31F513A
:10ADB00000232B4804F03AF8B54620460EF07EF802
:10ADC0000446002846D06D4688B06B4613F1100249
:10ADD0003AD010215AB10846042901DD214E5E61A6
:10ADE000082801DD204E9E610C2800DDDC610F2962
:10ADF0002DDD10243AB10421397100217971B97126
:10AE0000F9717868186100216FF300016FF3410157
:10AE10006FF382016FF3C501012363F38811C4F35B
:10AE20000A0464F353216FF31F5100230C4803F00D
:10AE3000FDFFAD460837BD46BDE8F0816FF000412B
:10AE400081E76FF01B0C98E76FF00041C2E76FF0ED
:10AE50001B04CFE72B6801332B60EBE7704700BF83
:10AE6000E0DE050068E8050068E9050040E8050047
:10AE7000102909D810B50C4610230A46014604488B
:10AE800032F086FA204610BD6FF01500704700BF03
:10AE9000343100200F290FD910B48446084C0FCC50
:10AEA000CCF80000CCF80410CCF80820CCF80C301A
:10AEB00010205DF8044B70476FF01500704700BF1D
:10AEC00034310020B0B582B000AF6C4688B06B461C
:10AED00013F1100236D00C2142B10846042901DDDD
:10AEE0001B4D5D61082801DD1A4898610B292CDD96
:10AEF0004FF00C0C3AB10321397100217971B9710D
:10AF0000F9717868186100216FF300016FF3410156
:10AF10006FF382016FF3C501032363F38811CCF350
:10AF20000A0C6CF353216FF31F5100230A4803F0FE
:10AF30007DFFA54628F091FC084823F0F9FA083770
:10AF4000BD46B0BD6FF00041C6E76FF01B0CD1E706
:10AF50009CE8050040E90500E0DE0500D80200207D
:10AF6000F0B595B000AF00200DF02AFEF864FB6C40
:10AF7000002B41D0FC6C6D4688B06B4613F110027B
:10AF800034D010215AB10846042901DD3A4E5E61E1
:10AF9000082801DD394E9E610C2800DDDC610F2997
:10AFA00027DD10243AB10421397000217970B9707D
:10AFB000F9703868186100216FF300016FF34101E7
:10AFC0006FF382016FF3C501012363F38811C4F3AA
:10AFD0000A0363F353216FF31F510023284803F042
:10AFE00025FFAD4600205437BD46F0BD6FF000414F
:10AFF000C8E76FF01B04D5E7224CBC4620686168A7
:10B00000A268E368ACE80F002069CCF80000A38ACE
:10B01000ACF804302B22002107F1160032F0E5F9DC
:10B020003846FDF79DFF3C184FF47F05D5F8040224
:10B030002146C0F3031025F01DFFD5F80402611C62
:10B0400000F00F0025F016FF0023A37038460DF026
:10B05000C3FEF864FFF736FF0B4815F0B7F900F0B0
:10B06000D5F907F14403094A92E8030083E8030095
:10B07000184600F0E7F9B5E7B8E805005CE9050017
:10B08000E0DE0500DCE80500E8020020A8E105009C
:10B09000F0B583B000AF4B4900200CF095FD0028BF
:10B0A0004BD005466C4688B06B4613F110023ED07B
:10B0B00010215AB10846042901DD434E5E6108287B
:10B0C00001DD424E9E610C2800DDDD610F2931DD7E
:10B0D0004FF0100C3AB10421397100217971B97126
:10B0E000F9717868186100216FF300016FF3410175
:10B0F0006FF382016FF3C501012363F38811CCF371
:10B100000A0C6CF353216FF31F510023304803F0F6
:10B110008DFEA5462F4B186800284AD013212AF02F
:10B12000DAFE10F1800F48D00C37BD46F0BD6FF04D
:10B130000041BEE76FF01B0CCCE76C4688B06B4655
:10B1400013F110022FD00C2142B10846042901DD71
:10B15000214D5D61082801DD1C4898610B2925DD22
:10B160004FF00C0C3AB10321397100217971B9719A
:10B17000F9717868186100216FF300016FF34101E4
:10B180006FF382016FF3C501032363F38811CCF3DE
:10B190000A0C6CF353216FF31F5100230C4803F08A
:10B1A00045FEA546B6E76FF00041CDE76FF01B0CFA
:10B1B000D8E70A4823F0BCF9B6E7084823F0B8F905
:10B1C000B2E700BF68050600F4E805002CE90500B9
:10B1D000E0DE05004431002018E90500D802002017
:10B1E00008B5054B01221A700FF060FB1321034BC9
:10B1F00018682AF070FE08BD8F49002044310020F5
:10B20000014B1878704700BF904900201046074A4C
:10B2100052682AB108B5D9B29047002802DB08BDB0
:10B22000002070476FF00C00F9E700BF38330020B2
:10B230002DE9F0418AB09846114B1B68D3B1054601
:10B240000E46174614210DEB01009847B0F1000C93
:10B2500012DB1FFA8CF4029405AB0193BDF8403069
:10B26000009343463A46314628462CF043FC0AB048
:10B27000BDE8F0810020FAE76FF00C00F7E700BFAF
:10B280003833002010B584B000240294044C01949B
:10B29000BDF8184000942CF02DFC04B010BD00BF88
:10B2A0004831002010B584B000240294044C01946D
:10B2B000BDF8184000942CF01DFC04B010BD00BF78
:10B2C0003C32002090B583B000AF022914BF0021AA
:10B2D0000121214B197088B06B4613F1100235D053
:10B2E00010206AB18446042801DD1C4C5C61BCF16D
:10B2F000080F01DD1A4C9C61BCF10C0F00DDD96117
:10B300000F2826DD4FF0100C3AB1042139710021CD
:10B310007971B971F9717868186100216FF30001D2
:10B320006FF341016FF382016FF3C501032363F3F0
:10B330008811CCF30A0C6CF353216FF31F510023D7
:10B34000084803F073FD0C37BD4690BD6FF0004018
:10B35000C7E76FF01B0CD7E79149002044EA0500CE
:10B3600098EA0500E8DE050090B583B000AF022939
:10B3700014BF00210121214B197088B06B4613F1D5
:10B38000100235D010206AB18446042801DD1C4C1F
:10B390005C61BCF1080F01DD1A4C9C61BCF10C0F23
:10B3A00000DDD9610F2826DD4FF0100C3AB10421E1
:10B3B000397100217971B971F971786818610021CA
:10B3C0006FF300016FF341016FF382016FF3C50169
:10B3D000032363F38811CCF30A0C6CF353216FF34E
:10B3E0001F510023084803F021FD0C37BD4690BDD6
:10B3F0006FF00040C7E76FF01B0CD7E792490020C1
:10B4000064EA050084EA0500E8DE050010B5084C92
:10B41000084A0921204615F055FD074B1860074AD8
:10B420000921204615F04EFD054B186010BD00BFE8
:10B43000ACEA050088EB05003433002074EB05000E
:10B4400030330020034638B102680AB103490A606C
:10B450005B680BB1014A5360704700BF383300206E
:10B4600008B502460B4603490968002025F084F917
:10B4700008BD00BF3433002008B502460B4603491F
:10B480000968002025F078F908BD00BF303300209E
:10B4900000B587B0002301930293039304930593AF
:10B4A000072302930390062304930C238DF8143092
:10B4B000034883685B6801A9984707B05DF804FBFF
:10B4C000C4DA050000B583B000238DF807300022F0
:10B4D00000230DF10701034822F0C4FC03B05DF81E
:10B4E00004FB00BFF40B002010B582B0002407E07D
:10B4F00004EB840293000B48184425F074FB0134DC
:10B50000032CF5DD084C00220849204631F035FDBA
:10B5100021220023CDE90023204623F025FE002030
:10B5200002B010BDA4EB050018110020C5B4020044
:10B5300000B585B0FFF7D8FF08E002A8FFF7A8FF25
:10B540000022002302A9064822F08CFCA42200233A
:10B550000DF10701034822F0E1FC0028F6D1ECE7E9
:10B56000240C0020F40B002008B5024825F048FB0D
:10B5700008BD00BF08EC050000B587B000230193AB
:10B5800002930393049305930823029303900223E9
:10B5900004930C238DF8143004238DF815300448DF
:10B5A00083685B6801A9984707B05DF804FB00BF9A
:10B5B000C4DA050000B54FF0000E1FE0B0F900C07E
:10B5C00007EE10CAB8EEC77A32F91EC007EE90CA6D
:10B5D000F8EEE77A77EEC77ADFED0A6A67EEA67AC9
:10B5E00077EE877AFDEEE77A17EE90CA0FFA8CFCB9
:10B5F00021F81EC0A0F800C00EF1010E9E45DDD35B
:10B600005DF804FB0000003D08B503460022C2605F
:10B610001033024A02212FF010F808BD80030020E9
:10B6200038B507EE901A1446C3685A1CC260F8EE8B
:10B63000E77A083300EB8303C3ED007A202A01D0B8
:10B64000002038BD054620230B4AC1182EF0B6FF56
:10B6500000230BE0084901EB8301D1ED007AFDEEF8
:10B66000E77A17EE902A24F8132001331F2BF1D923
:10B670000023EB600120E4E74033002038B50546A5
:10B680000C4600EB410125F010FB04EBD4735B107A
:10B6900014F0010F06D035F9133000EE103AB8EE71
:10B6A000C00A38BD03F10042013A35F9120035F9FC
:10B6B00013301844FDF716F80022044BFDF77CF810
:10B6C000FDF78CFA00EE100AEBE700BF0000E03F48
:10B6D0000268024B1A6082889A80704724340020E6
:10B6E0002DE9F04F2DED028B83B005469246019374
:10B6F000B0F89031B0F892213AB19B1A0FFA83F961
:10B70000B9F1000F06DB00221BE0A3EB0A030FFADE
:10B7100083F9F5E709F1C8090FFA89F9F3E7B5F8F4
:10B72000900131F9123025F8103001303D4B83FB88
:10B7300000439B11C82404FB1303A5F89031013288
:10B7400092B25245EBDB002648E08118354B83FB73
:10B75000013CCB17C3EBAC134FF0C80C0CFB13131D
:10B760009BB235F91310304B23F81210013292B20C
:10B77000A242EADBDFF8B08021464046FFF77EFFB9
:10B78000B0EE408A2146404625F0A2FA5F44254AA1
:10B7900082FB0732FB17C3EBA213C82202FB137311
:10B7A0009BB235F91310FDEEC87A17EE903ACA1A1B
:10B7B000002AB8BF524207EE902AF8EEE77A1B4AF9
:10B7C00092ED007A27EE007AF4EEC77AF1EE10FAE5
:10B7D0001DDD019A22F81630013636B2B3465645C1
:10B7E00019DA4F46114B9C88A9EB04033344C83344
:10B7F0000C4A82FB0312D817C0EBA210C82202FB2E
:10B80000103000B26400013424B20022B0E7019B82
:10B8100023F81610E0E7A5F892A103B0BDEC028B67
:10B82000BDE8F08F1F85EB51C03300202434002089
:10B830002DE9F04F91B005920293134602F00402F5
:10B840000092C3F3C20310F00302019240F025827C
:10B8500007468A460133041D002847D027B1E21B62
:10B860000432524500F21C82029A551E019A04923B
:10B870000692039200264FF0FF3B4FF00408C146AA
:10B880000FB1029A22605A1E0792002B40F35F818B
:10B89000059B13F0020226D00120E11B8B081AB190
:10B8A000B1F5007F80F0028203990F2900F2018236
:10B8B000002F00F06481DBB201F140026A4402F81B
:10B8C000103C02F820BC002800F0558163F07F0393
:10B8D00001F140026A4402F8103C049B01330493D6
:10B8E000039B01330393043400213DE001F0070A78
:10B8F0005444CAF1080AB1E7002634E0002632E0D9
:10B90000002630E04FF00808C1462CE0252B2AD154
:10B910000BF1010B01264FF00408C14623E0472B31
:10B92000ECD82A2B12D32A3BDBB2012000FA03F316
:10B930004FF6DA70034216D113F0625F40F0C48014
:10B9400013F0010F40F08E8000260CE0252B03D170
:10B950000BF1FF3B002606E001D9002603E0202B77
:10B9600001D0232BCCD115466A1C6B78002B00F03C
:10B970001F81002ECAD07A2BBED84C2BCFD34C3B84
:10B980002E2B61D801A050F823F000BF67B9020048
:10B9900049BA020049BA020049BA020049BA020093
:10B9A00049BA020049BA020049BA020049BA020083
:10B9B00049BA020049BA020049BA02005DBA02005F
:10B9C00049BA020049BA020049BA020049BA020063
:10B9D00049BA020049BA020049BA020049BA020053
:10B9E000C9BA020049BA02005DBA02005DBA02009B
:10B9F000C9BA0200C9BA0200C9BA020067B9020096
:10BA00005DBA020005B9020049BA020067B9020036
:10BA100049BA020027BB02005DBA020027BB020040
:10BA200049BA020049BA020031BB020055BA02000D
:10BA30005DBA020049BA020049BA02005DBA0200CA
:10BA400049BA02004DBA020000268CE74FF0040804
:10BA5000C14688E74FF00408C14684E72B786C2B79
:10BA600024D000264444013CC8F100031C40204679
:10BA700027B1E31B4B449A45C0F0158100295DD1E5
:10BA8000B9F1040F00F08C80B9F1080F40F0148177
:10BA90001A9B073323F0070303F108001A9093ED74
:10BAA000007B0FB184ED007B08345CE712F8023CA8
:10BAB0006C2B04D000264FF00408C146D2E70026C4
:10BAC0004FF00808C146CDE72B784C2B1BD01A9BB2
:10BAD000073323F0070303F108001A90D3E9008924
:10BAE000073424F0070447B1E31B0833534514D847
:10BAF0002B784C2B14D0C4E90089083400264FF071
:10BB00000808C1462FE71A9B073323F0070303F108
:10BB100008001A90D3E90089E2E76FF01B00B9E052
:10BB2000C4E90089E9E700264FF00408C14699E717
:10BB3000314600264FF00408C14693E704461A9B9D
:10BB4000191D1A911B680293079B154698E6604BD6
:10BB5000029A9A4204D35F4B9A420AD3002300E030
:10BB60000023002B7FF494AE059B03F0020200201B
:10BB700093E60123F5E7069B01330693B0E610B187
:10BB80000AF1010AACE6009B13B10AF1020AA7E62A
:10BB90000298FDF7E5F900EB0A0303F1020A9FE6BC
:10BBA0001A9B181D1A901B6807B123600434DAE64B
:10BBB000E31BB3F5806F80F0828097B100223A607A
:10BBC0009B083B70009B83B1069BFB70049BBB7082
:10BBD0001BBB019DDDF80C90DDF810B0DDF808808E
:10BBE0003BE05344A3F1080054E0069B7B70EDE773
:10BBF00001339842EDD903F140026A4412F8101C57
:10BC000012F9102C002AF3DA01F07F01E21B013255
:10BC1000924557D304F8011BEAE7019B0398E8E734
:10BC2000009B3BB305F140036B4413F8203C04F840
:10BC3000013B019EE31B334401339A4545D305F193
:10BC400040036B4413F8103C04F8013B3246414674
:10BC5000204631F090FB34440135A94519D9BBF198
:10BC6000000FDDD005F140036B4413F9103C002BAD
:10BC7000D6DAF1E705F140036B4413F8103C57F8AE
:10BC80002380002247F823204046FDF769F9461C2F
:10BC9000D0E7E01B11B0BDE8F08F6FF00D00F9E7C1
:10BCA0006FF01B00F6E76FF01B00F3E76FF0150075
:10BCB000F0E76FF01500EDE76FF01500EAE76FF0C1
:10BCC0001500E7E76FF01B00E4E76FF01B00E1E70A
:10BCD00084D90500C84E06002DE9F04F97B000AF9B
:10BCE0008346BA61FB60D7F88030C3F3C0033B6280
:10BCF000396111B925F01FF838619BF80260B1462F
:10BD000036B1D7F8803013F0010F0DD1002300E0D9
:10BD100000239BF803207A6242B1D7F8802012F00A
:10BD2000020F22D1002202E00123F2E7002202B931
:10BD3000EBB19BF80050AA00BA60DBF804207A61EE
:10BD40000BEB8505BA69F2B1002B40F01581B9F112
:10BD5000000F00F02081D7F8803013F0040F40F07E
:10BD60001E810020F86106460AE10122DFE7BB6977
:10BD70001BB1FA683969584698473C6920465C37D8
:10BD8000BD46BDE8F08F3C692BBBB9F1000F38D040
:10BD9000D7F8803013F004033B6127D04D440023D3
:10BDA0003B6123E00444013501364E451AD22A781E
:10BDB00000235BF822201946B86924F0D1FFBAF1BC
:10BDC000000FEFD0D7F888309845EBD22AF818004A
:10BDD00008F10108E6E70026C7F81C80B046D7F84E
:10BDE00084A0E2E7C7F81080D7F81C80D7F880302D
:10BDF00003F00503FB604FF0000AA146C7F81CB032
:10BE0000A4E0C7F81090F1E700253B6A7BB9002D4C
:10BE10007ED0D7F8803013F0010F7ED1FB68002B65
:10BE200074D10223A9EB03098DE00125EDE7594602
:10BE3000786924F0DBFF0028E9D06C46012387F8FD
:10BE40002C30032387F82D308AB0694611F1100297
:10BE50003CD0162542B12B46042D01DDB248486185
:10BE6000082B01DDB14B8B61012387F828300323B8
:10BE700087F829306ABB152D45DD162362B10520F0
:10BE800087F82C00002087F82D0087F82E0001206D
:10BE900087F82F00F86A08616FF300086FF3410814
:10BEA0006FF382086FF3C508022161F38818C3F3AA
:10BEB0000A0363F353286FF31F58002341469C483D
:10BEC00002F0B4FFA546A9F102093CE06FF000457D
:10BED000C0E72B460C2D01DD7869C861102B01DD10
:10BEE000C1F820B001F12403002009E000F1300C7A
:10BEF00007F1280EF4441CF830CC03F801CB0130D4
:10BF00000128F3D9B7E76FF01B03B7E7012389E7EF
:10BF1000D7F8803013F0020F15D0002322461946BF
:10BF2000B86924F01DFFD7F8843053B13B69D7F8C6
:10BF30008820934205D2D7F8842022F813000133D9
:10BF40003B61013881440AF1010A35467B6A9A4512
:10BF500010D22E4616F802BB6B78FA6952F82340CD
:10BF6000744B9C42FFF450AF734B9C42FFF45DAFA7
:10BF700000254AE74C4601E707F144000023FB6136
:10BF800018B14A46294631F0F6F94D444FF0000801
:10BF9000C7F804901EE00020F8610646F0E7FE6155
:10BFA00007F134000026EBE700253B6A33BB002D88
:10BFB0003BD0D7F8803013F0010F26D0731C06F168
:10BFC000300207F12801561806F8149CDEB208F179
:10BFD000010825467B6A984549D22C4614F802ABE5
:10BFE00095F801905BF82930524A9342DCD3524ACB
:10BFF000934201D30025D8E70125D6E75146786959
:10C0000024F0F4FE0028D2D0E1E7D7F8803013F016
:10C01000040FDCD0FA69531C303207F128010A44BE
:10C0200002F8249CDBB2FB61D1E7D7F8803013F033
:10C03000020F09D0731C06F1300207F128015618CF
:10C0400006F8149CDEB2C2E7F9694B1C01F130021C
:10C0500007F12800024402F824AC8A1CD2B2FA612B
:10C0600007F1580252FA83F303F8249CAFE7D7F89C
:10C0700004909BF8003087F854309BF8013033442B
:10C0800087F85530D7F8803013F0020F0ED1FB69D6
:10C09000C3F3470387F85730D7F8803013F0010F08
:10C0A00006D113F0040F3DD1002302E00023F1E795
:10C0B000002387F85630DBF800003863786DCBF842
:10C0C0000000D7F80CA05246B9685846BB6998479B
:10C0D000041EFFF653AE386BCBF800005246F969E8
:10C0E00007F13400BB699847002858DB04EB0008CF
:10C0F000B9684944786A01EB400152463869411AEF
:10C100002846BB699847041EFFF638AE08EB0405C5
:10C110004FF000087E62C7F820B0BE69D146D7F85C
:10C1200084B020E0FB69C4E71CEC0500C4EC05000A
:10C13000C8DF050084D90500C84E06004FF0000A8C
:10C140004A46012107F12C00B047002829DB0544AD
:10C15000534622464946304624F002FE002822DBA0
:10C16000054408F101087B6A984511D208F13003B3
:10C1700007F12802134413F8143C87F82C303A6A6C
:10C1800052F82340BBF1000FD8D03BF818A0D7E7F6
:10C19000FA6800210846BB6998472C46EEE504463C
:10C1A000ECE50446EAE50446E8E500BF10B586463E
:10C1B0000020642310E00CF1300C0EF801CB0139A3
:10C1C000C9B20130C0B2B2FBF3F403FB1422D2B205
:10C1D000094CA4FB0343DB0849B143B1B2FBF3FCB8
:10C1E0009A42E8D2012BE6D00028ECD0E3E711B167
:10C1F00000238EF8003010BDCDCCCCCC10B586B06D
:10C2000004460390049100210591009103A906487A
:10C2100000F0A2FB059B049A934201DA0022E2544B
:10C22000059806B010BD00BF250F05002DE9F043AD
:10C2300083B0044608461546238B13F0080F05D13A
:10C2400003F0070600230093019355E0012909D06C
:10C2500043F02003238385F31188BFF36F8F03B06E
:10C26000BDE8F08343F010032383F4E7204625F074
:10C2700053FA43E0D4F814904A466946204625F024
:10C2800064FA4FF00008238B03F00707B74269D028
:10C29000A268002A66D0012243F00803238385F3B5
:10C2A0001188BFF36F8F002A64D1009B2BB14B46DE
:10C2B0003A466946204625F0C1FAB8F1000F02D08F
:10C2C00034492046C0474FF02003EFF3118583F334
:10C2D0001288BFF36F8F238B23F008032383238BF4
:10C2E00013F0100F4CD023F0100323830120268B72
:10C2F00006F007060028AED00228B7D00028AAD042
:10C30000013804282AD801A353F820F075C202008E
:10C310005DC3020021C3020035C3020049C302000D
:10C320002369D3F800800621204625F0CBF94FF091
:10C330000009A8E72369D3F804800421204625F0EA
:10C34000C1F94FF000099EE72369D3F80880052161
:10C35000204625F0B7F94FF0000994E74FF00008A8
:10C36000C14690E7009A0AB1002295E7B8F1000FA4
:10C3700092D1B4E74A463946204625F0ABF994E716
:10C3800013F0200F04D023F0200323830220AEE714
:10C390000020ACE76B1805004FF0000C944515D257
:10C3A00010B511F80C3058400309094CE35C83EADE
:10C3B00000135FFA83FEC3F30313E05C80EA0E1000
:10C3C000C0B20CF1010C9445EBD310BD704700BF17
:10C3D000F4EC050084460268002006E000EB8000D3
:10C3E000013203EB4003A3F1300013780349C95C29
:10C3F00011F0040FF2D1CCF800207047914D0600E7
:10C4000084460846012226E09CF8003043F00403ED
:10C410008CF80030F2B101301CE09CF8003043F0A1
:10C4200008038CF80030F5E79CF8003043F0100367
:10C430008CF80030EEE79CF8003043F020038CF8D5
:10C440000030E7E79CF8003043F040038CF8003000
:10C45000E0E7002242B30378203B102BF9D801A17A
:10C4600051F823F029C4020053C4020053C402004F
:10C4700037C4020053C4020053C4020053C4020074
:10C4800053C4020053C4020053C4020053C4020048
:10C490001BC4020053C4020009C4020053C40200BA
:10C4A00053C4020045C402009CF8003003F044036A
:10C4B000442B00D070479CF800306FF386138CF843
:10C4C0000030F7E72DE9F84F05460C4693469946AC
:10C4D0000A9FD078254B13F800A00AF0030A25F034
:10C4E00075FC064615E0BAF1010F20D0D2B25732E2
:10C4F000D2B207F8012D3246434628462146FCF7C2
:10C50000BDFBB54274F1000415D34F4513D9054660
:10C510000C464FF000083246434628462146FCF7B9
:10C52000ADFB092ADFD8D2B23032D2B2E1E7D2B2C3
:10C530003732D2B2DDE79BF8003013F0200F03D082
:10C54000082E04D0102E09D03846BDE8F88F9BF88D
:10C55000023043F008038BF80230F5E79BF8023015
:10C5600043F010038BF80230EEE700BF914D060058
:10C570002DE9F04F87B055EC104B07460E46994613
:10C5800021462B1E06DB007810F0080F12D02B205E
:10C59000107001E02D20107097F80380C3F30A5447
:10C5A000C3F313030491059354B951EA030227D14D
:10C5B000002206E010F0100FEED020201070EBE704
:10C5C000002240F2FF7084421CD0B8F1460F5DD0CB
:10C5D000DB0243EA5153C9020491059323F000435F
:10C5E0000593214343EAE473194307D0002A51D14C
:10C5F000A4F2FE34059B43F00043059300256AE056
:10C600000122DEE70B4324D19D4B13F8083003F0E1
:10C610000303012B11D0692389F800306E2389F8B8
:10C62000013009F10302662389F802303B786FF389
:10C6300086133B70109B1A6078E1492389F800301B
:10C640004E2389F8013009F10302462389F80230AC
:10C65000ECE78B4B13F8083003F00303012B0AD0EF
:10C660006E2389F80030612289F8012009F1030264
:10C6700089F80230DAE74E2389F80030412289F840
:10C68000012009F1030289F80230CFE74FF0660874
:10C690009EE7013C049B059ADB18524104930592E6
:10C6A000002AF6DAA4E7059B049A520842EAC3720C
:10C6B0005B080492059321460134B3F1333FF2D273
:10C6C0009C0044EA92749000801843EB04030490A9
:10C6D00005938C1C013D14F1020FE4DB14E0049B74
:10C6E0000233059A42F100020493059204A825F052
:10C6F00027FB013C0135049A059B92185B4104928B
:10C700000593013C002BF6DA002CE8DCC4F10401AF
:10C71000059A1C34A1F12000049BCB4002FA04F4DA
:10C72000234322FA00F00343CA4004930592B8F170
:10C73000670F14D0B8F1470F11D04FF0000BB8F1CC
:10C74000660F2AD006F1010A102303939A4500DDF3
:10C750009A4600224FF00063CDE9002329E015F14D
:10C76000030F01DBB54211DDA8F102085FFA88F87A
:10C77000002E00DD013E3B78C3F3401B13F0200F79
:10C7800008D1002EDBDD4FF0010BD8E7761B4FF010
:10C790006608F0E74FF0000BD1E715EB060AD3D59A
:10C7A000102303934FF0000AD3E7684625F0E4FA1C
:10C7B000A2460AF1FF34BAF1000FF6D1049B009AA9
:10C7C0009B18059A019942EB0102049305924FF0E0
:10C7D000FF3199426FF07043934106D3B8F1660F71
:10C7E00038D1002D31DD4C460BE004A825F0C4FA09
:10C7F0000135F3E703A904A825F0CAFA04F8010BF0
:10C80000013D002D02DD039B002BF3DC7D605546CE
:10C810003B7813F0200F01D1002E02DD2E2304F807
:10C82000013B002D35DA002E33DD6B427B609E42EA
:10C8300000DA7E607B68F61A002BD4BF0023012348
:10C84000BA7863F34512BA7023E04C46302304F8FB
:10C85000013BDDE703A904A825F09AFA4C4604F849
:10C86000010B302800D0013D3B7813F0200F01D19F
:10C87000002E0EDD09F102042E2389F8013008E0B4
:10C88000914D060003A904A825F082FA04F8010BD3
:10C89000013E002E02DD039B002BF3DCBE60BBF1EA
:10C8A000000F09D00023BB6023461C4613F8012D5E
:10C8B000302AFAD02E2A3DD0B8F1650F02D0B8F157
:10C8C000450F26D184F80080002D35DBA21C2B23D8
:10C8D0006370632D0CDD1E4981FB0531EB17C3EB43
:10C8E000611303F1300102F8011B642101FB1355B0
:10C8F000184981FB0531EB17C3EBA10303F13001AC
:10C90000144604F8021B03EB8303A5EB4303303307
:10C9100053707B68002B14DD4FF0010ABB786AF37B
:10C920008613BB70109B1C6000232370484607B021
:10C93000BDE8F08F1C46BFE76D42A21C2D2363703B
:10C94000C7E7BB68002BE9DD4FF0010AE6E700BF4F
:10C950001F85EB51676666662DE9F04F95B0064678
:10C960000D4690460393002498F80000002800F03C
:10C970004583252808D008F101082946B04700283A
:10C98000C0F23D830134EFE7002306930793089339
:10C9900009930A930B930DF14D0205928DF8133014
:10C9A000414608A825F0AAF981469DF8213013F0E8
:10C9B000010F00F09E80039B1A1D03921F68002F39
:10C9C000C0F28F809DF8213013F0040F00F0A38097
:10C9D000039B1A1D0392D3F800A0BAF1000FC0F216
:10C9E0009180002309930A939DF8223003F00703F6
:10C9F000042B00F099809DF8223003F007039DF886
:10CA00002120C2F3C302012B00F09E80022B00F014
:10CA1000E380042B00F03481032B00F04B819DF860
:10CA2000202012F0030F40F04B819DF82330253B6E
:10CA3000532B00F2FC81DFE813F04F01FA01FA01F9
:10CA4000FA01FA01FA01FA01FA01FA01FA01FA010E
:10CA5000FA01FA01FA01FA01FA01FA01FA01FA01FE
:10CA6000FA01FA01FA01FA01FA01FA01FA01FA01EE
:10CA7000FA01FC01FA01FA01FA01FC01FC01FC01D6
:10CA8000FA01FA01FA01FA01FA01FA01FA01FA01CE
:10CA9000FA01FA01FA01FA01FA01FA01FA01FA01BE
:10CAA000B101FA01FA01FA01FA01FA01FA01FA01F7
:10CAB000FA01FC01FA019C01A501FC01FC01FC0149
:10CAC000FA01A501FA01FA01FA01FA01F501B10131
:10CAD000DC01FA01FA015701FA01B101FA01FA0188
:10CAE000B1019DF8203043F004038DF820307F42DF
:10CAF00068E79DF92030002B02DB4FF0FF3761E73C
:10CB0000099F5FE79DF821306FF341038DF82130D5
:10CB10004FF0FF3A65E713F0020F02D0DDF828A0CE
:10CB20005FE74FF0FF3A5CE79DF8213013F0020F0A
:10CB30007FF461AF9DF92130002B02DB4FF0060A34
:10CB400059E74FF00D0A56E7D31E042B04D8DFE84F
:10CB500003F00B1D29353500039B191D03911B683C
:10CB6000D9170693079106E0039B191D03911B68D3
:10CB7000D91706930791012A28D0022A7FF44FAFD4
:10CB8000BDF91830DA170693079248E7039B07337D
:10CB900023F0070303F108010391D3E90001CDE974
:10CBA0000601E8E7039B073323F0070303F10801BD
:10CBB0000391D3E90001CDE90601DCE7039B191DD0
:10CBC00003911B68D91706930791D4E79DF9183094
:10CBD000DA170693079222E7D31E042B04D8DFE866
:10CBE00003F00B1F35414100039B191D03911B6886
:10CBF0000693002307931EE09DF82330632B07D094
:10CC0000039B191D03911B6806930023079312E0F1
:10CC1000039B191D03911B680693002307930AE0E9
:10CC2000039B073323F0070303F108010391D3E9C2
:10CC30000001CDE90601012A1CD0022A7FF4EFAEE3
:10CC4000BDF81830069300230793E8E6039B0733EB
:10CC500023F0070303F108010391D3E90001CDE9B3
:10CC60000601E8E7039B191D03911B680693002347
:10CC70000793E0E79DF81830069300230793CEE66C
:10CC8000082A0BD0039B073323F0070303F10802A4
:10CC90000392D3E90023CDE90623C0E6039B0733C3
:10CCA00023F0070303F108020392D3E90023CDE93F
:10CCB0000623B4E6039B1A1D03921B680693AEE697
:10CCC0004B4642462946304625F0B4F80028C0F2CB
:10CCD00096810444C84647E629462520B0470028E7
:10CCE000C0F28D810134A2E0DDF81880BAF1000FA6
:10CCF0003ADA4046FCF734F940440590B8F1000FA9
:10CD000000F09580059BA3EB08039DF8130000B18C
:10CD100001339DF8221011F0100F00F097800233BC
:10CD2000099A134411F0400F01D00A9A1344002FBE
:10CD300040F3A480FF1A9DF8203013F0040F40F058
:10CD40009D8013F0400F00F09280002800F0928048
:10CD50002946B0470028C0F25281013400238DF8E3
:10CD600013304FF0300A87E05146404630F021FC46
:10CD7000C2E7069B8DF834300DF1350305930DF1B4
:10CD80003408BFE712F0080F23D02B238DF813309F
:10CD9000069A079B002B23DB06920793059B0093C3
:10CDA0000DAB08AADDE90601FFF78CFB8046BAF15E
:10CDB000000FA3DB059BA3EB08039DF820206FF376
:10CDC00086128DF820209A4598D9AAEB030309937F
:10CDD00094E712F0100FDBD020238DF81330D7E743
:10CDE0002D218DF81310524263EB430306920793F3
:10CDF000D4E7069820B9834B0593A3F1050881E792
:10CE0000059B00930DAB08AA0021FFF75BFB804652
:10CE10009DF8223043F010038DF8223078238DF8EE
:10CE20002330C4E72246069908A824F0E4FFC84648
:10CE30009AE505AB00930DAB0DF11302514608A81E
:10CE40009DED060BFFF794FB804657E711F0080FA6
:10CE50003FF466AF013363E701343B465F1E002BAE
:10CE60000CDD29465046B0470028F5DAC7E04FF000
:10CE7000200A01E04FF0300A3B46EFE79DF813002F
:10CE800028B12946B0470028C0F2B98001349DF886
:10CE9000223013F0400F74D09DF92130002B0FDBAE
:10CEA00098F80000584B1B5C13F0040F15D008F1E4
:10CEB00001082946B0470028C0F2A1800134EFE7FD
:10CEC00098F80000702845D008F101082946B047BD
:10CED0000028C0F294800134F2E7DDF824A09DF828
:10CEE000223013F0200F12D098F800002E281DD009
:10CEF00098F80000444B1B5C13F0040F2AD008F193
:10CF000001082946B047002879DB0134F0E70AF12F
:10CF1000FF3BBAF1000F07DD29463020B04700285B
:10CF20006DDB0134DA46F2E7DA46DDE708F10108A5
:10CF30002946B047002862DB01340AF1FF3BBAF111
:10CF4000000FD5DD29463020B047002857DB0134DB
:10CF5000DA46F2E70A9B03F1FF3A002B07DD294688
:10CF60003020B04700284ADB01345346F3E7059BE5
:10CF700042462946304624F05DFF00283FDB04444A
:10CF800032E09DF82230C3F30012C3F3C0031A430A
:10CF900005D029463020B047002830DB01349DF809
:10CFA000223013F0100F06D029469DF82300B04719
:10CFB000002824DB0134099B03F1FF3A002B07DD35
:10CFC00029463020B047002819DB01345346F3E7E7
:10CFD000059B42462946304624F02CFF00280EDBF4
:10CFE000044401E00134013F002F05DD29462020E3
:10CFF000B0470028F6DA02E0C846B5E4204615B08E
:10D00000BDE8F08F09ED0500914D060008B5044616
:10D010004FF02002EFF3118382F31288BFF36F8F7A
:10D020001DF07CFA204627F02AFA034823F097FFE8
:10D0300003F09AFDFCE700BF0CED050068B108B5F0
:10D04000064A074B1B680749A1FB03139B0C00FB17
:10D0500003F042F00103984708BD7047D0E2050095
:10D060002808002083DE1B4300F01F02400901282E
:10D070000AD00648803250F8223023F0E04343EAD9
:10D08000017140F8221070470148F3E700258450F1
:10D090000028845038B54FF02003EFF3118583F357
:10D0A0001288BFF36F8F0121164BC3F80015164A83
:10D0B0000223C2F8D0361548D0F8003223F0E043FE
:10D0C00043F04053C0F80032D0F8043223F0E0437C
:10D0D00043F04053C0F80432C2F80417C2F80419F0
:10D0E000C2F8001B002405E00121094B185DFFF781
:10D0F000BBFF0134032CF7D985F31188BFF36F8F81
:10D10000002038BD00100050004000500025845021
:10D1100038ED050038B51A4B1B780133194AA2FBCC
:10D12000031202F4FE7101EB92029C1AE5B22DF09B
:10D130009DF8154B1B782BB1144A52F82530C01AB4
:10D1400007281AD94FF05023D3F8143163B14FF0A8
:10D1500050230022C3F81421D3F81431084B1D705A
:10D1600015B9094B01221A70054B1C782DF07EF879
:10D17000064B43F82400012038BD0020FCE700BF27
:10D1800094490020CDCCCCCC934900202C340020F5
:10D19000062800D0704708B5014825F072F900BF95
:10D1A0000040005000B583B00246084B00930823AE
:10D1B00001930749684625F071F9002803DB012136
:10D1C000684625F07AF903B05DF804FBF4DA05004F
:10D1D000E924050010B5C4B20123A340054AC2F8F2
:10D1E0000835C0F307201DF045F920461EF06CF904
:10D1F00010BD00BF0070015038B504460D46C0F3A5
:10D2000007201CF0E9FFC4F307439B00DBB23DB1EC
:10D21000E4B2064A44F00044D450C0F8804038BD1F
:10D220000021C0F88010014AD150F8E780A00250D8
:10D2300070B505460E46040EA40004F58074C0F3D4
:10D2400007202CF0E4FF46B1EDB245F00045C0F8F0
:10D250008050A4B2044B1D5170BD0022C0F8802044
:10D26000A4B2014B1A51F7E780A0025070B582B00A
:10D270000446C0F3072630461CF0B6FF05460021E1
:10D280002046FFF7D5FF01212046FFF7B5FF05F146
:10D2900032020194044B00935200002330462CF0DC
:10D2A000DAFF02B070BD00BFD5240500F0B583B031
:10D2B00000AF381D1EF000F9324B98423DD06FF0A0
:10D2C00012046D4688B06B4613F1100254D0102141
:10D2D0005AB10846042901DD2B4E5E61082801DDA4
:10D2E0002A4E9E610C2800DDDC610F2947DD4FF0DE
:10D2F000100C3AB10421397000217970B970F970BD
:10D300003868186100216FF300016FF341016FF37A
:10D3100082016FF3C501012363F38811CCF30A0C7A
:10D320006CF353216FF31F510023194801F07EFD68
:10D33000AD4620460C37BD46F0BD1DF073F8041E07
:10D3400016DB7C710723BB710823FB717868FFF73C
:10D3500029FF041EB5DB3B79012101FA03F30D4AD5
:10D36000C2F804357868FFF763FF002CE1D0A8E726
:10D3700038791EF0A9F8F8E76FF00041A8E76FF0E0
:10D380001B0CB6E70000AD0B40ED05006CED050091
:10D3900090E00500007001501DF0FCBE2DE9F04743
:10D3A00086B000AF04460023FB60C36A1E7900F11B
:10D3B000140A4FF0FF324FF0FF33504620F012FEB8
:10D3C000E36A1B68DAB2012A08D902F1070853425E
:10D3D00008EA03084FF000094D4604E04FF0080842
:10D3E000F8E70135ADB2E389AB421ED9A189A1EBC3
:10D3F000080189B201EB0541F96008233246204655
:10D4000025F0D8F80028ECD009F101091FFA89F9B4
:10D4100007F10C01204625F094F808233246F968FC
:10D42000204625F0C7F80028DBD1E3894B4500F002
:10D430006B81AB420ED007F10C01204625F029F993
:10D440000546002840F04481FB6863601B0C1B0408
:10D45000A36013E008233246F968A1EB08012046D7
:10D4600025F0A8F80028E6D107F10C01204625F0A8
:10D4700068F8E0E76368A3EB080363606168A3688A
:10D4800099422ED307F11002204625F049F80546AF
:10D49000002840F01681314607F1100025F045F8CC
:10D4A000F8B107F11001204625F0D7F80028E1D0A7
:10D4B000FB891804A0607B8AB98A0B44E26A12686F
:10D4C000D5B2012D03D92B44013B6A4213400344DA
:10D4D000A36062689342CDD10029CBD06FF01C05C8
:10D4E000F6E0E3881B04FB6007F10C01204625F001
:10D4F00028F8A3893246F968204625F05BF8051E16
:10D50000C0F2E680002D00F0C98063684344FB60F0
:10D5100002E0FB684344FB60F9688AB2A389A3EB8D
:10D5200008039A4217D23A1D204624F0F9FF054617
:10D53000002840F0C680391D204625F08EF80028CE
:10D54000E7D0BA884FF6FF739A42E2D13B89002BAD
:10D55000DFD1012300E00023002B4CD16D4688B0C1
:10D56000694611F1100200F08E800C2342B118467A
:10D57000042B01DD664E4E61082801DD6548886197
:10D580000B2B40F383800C233AB10320387000202A
:10D590007870B870F8703868086100216FF3000186
:10D5A0006FF341016FF382016FF3C501032060F354
:10D5B0008811C3F30A0363F353216FF31F51002350
:10D5C000554801F033FCAD466168204625F01AF855
:10D5D000054600287CD1E3881B046360A289A2EB86
:10D5E0004802134463601B0C1B04A360204625F013
:10D5F000B7F9054665E06D4688B06B4613F1100239
:10D600003BD00C2142B10846042901DD434E5E6146
:10D61000082801DD3F4898610B2931DD0C263AB11D
:10D620000321397000217970B970F9703868186178
:10D6300000216FF300016FF341016FF382016FF37B
:10D64000C501032363F38811C6F30A0666F3532169
:10D650006FF31F510023304801F0E8FBAD46E3882B
:10D660001B04FB6007F10C01204624F06AFFF968F7
:10D67000204624F0C7FF054623E06FF00041C1E7D4
:10D680006FF01B06CBE76FF000436FE76FF01B03F3
:10D690007AE7A368E26A12681344A3606368A1682A
:10D6A0008B4208D95B1A3246204624F083FF051EC0
:10D6B00007DB002DEDD1616801EB4802A3899A4296
:10D6C0000ED02DB9A288A389A3EB48039A4216D0A5
:10D6D000504620F00BFD28461837BD46BDE8F087C0
:10D6E000A2680B0C1B049A42EBD0204624F08AFF60
:10D6F00005460028ECD1E3881B04A360E1E720463F
:10D7000025F018F90546E3E76FF02C05E0E700BFC8
:10D71000A4ED0500F8EE0500F0DF050088ED05003A
:10D720002DE9F04184B000AF044614302EF056FFCE
:10D73000A06A8368DB689847E062002800F00181F6
:10D74000A06A8368DB6898470368013B1F2B00F2DF
:10D750003581A06A21683A1D2CF041FA002840F07A
:10D760006A81A389002B00F0B381BA68B3FBF2F1A0
:10D7700002FB1133002B40F0AB81E389012B40F217
:10D78000E4812046FFF70AFE0546002840F0D480D9
:10D7900001232374B4F80EC0A689E8468AB06B460C
:10D7A00013F1100200F00E8214219AB108460429E8
:10D7B00003DDDFF810E3C3F814E0082803DDDFF829
:10D7C000F8E2C3F818E00C2801DDC3F81CC01028EB
:10D7D00000DD1E62132940F3F88114263AB10521B9
:10D7E000397000217970B970F970386818610021BA
:10D7F0006FF300016FF341016FF382016FF3C50115
:10D80000032363F38811C6F30A0666F353216FF30B
:10D810001F510023A64801F009FBC54663684FEA83
:10D82000134E99B26E468AB06B4613F1100200F0A7
:10D83000CF811420B2B18446042803DDDFF888824A
:10D84000C3F81480BCF1080F03DDDFF86C82C3F865
:10D850001880BCF10C0F01DDC3F81CE0BCF1100F07
:10D8600000DD1962132840F3B6814FF0140C3AB171
:10D870000521397000217970B970F9703868186124
:10D8800000216FF300016FF341016FF382016FF329
:10D89000C501032363F38811CCF30A0C6CF3532105
:10D8A0006FF31F510023824801F0C0FAB546A1680A
:10D8B0004FEA114C89B26E468AB06B4613F11002E2
:10D8C00000F08C8114209AB10446042803DDDFF8AF
:10D8D000FCE1C3F814E0082C03DDDFF8DCE1C3F859
:10D8E00018E00C2C01DDC3F81CC0102C00DD1962FF
:10D8F000132840F3768114243AB1052139700021B0
:10D900007970B970F9703868186100216FF30001FF
:10D910006FF341016FF382016FF3C501032363F3DA
:10D920008811C4F30A0464F353216FF31F510023D9
:10D930005F4801F07BFAB54628461037BD46BDE882
:10D94000F0816D4688B06B4613F1100230D00C2187
:10D9500042B10846042901DD564C5C61082801DD0E
:10D96000554898610B2926DD0C243AB10321397002
:10D9700000217970B970F9703868186100216FF36F
:10D9800000016FF341016FF382016FF3C5010123C1
:10D9900063F38811C4F30A0464F353216FF31F5136
:10D9A0000023434801F042FAAD466FF01505C3E786
:10D9B0006FF00041CCE76FF01B04D6E76D4688B0EE
:10D9C0006B4613F1100230D00C2142B108460429F5
:10D9D00001DD3A4C5C61082801DD374898610B296C
:10D9E00026DD0C243AB10321397000217970B97019
:10D9F000F9703868186100216FF300016FF341017D
:10DA00006FF382016FF3C501012363F38811C4F33F
:10DA10000A0464F353216FF31F510023244801F0DB
:10DA200005FAAD466FF0150586E76FF00041CCE7CB
:10DA30006FF01B04D6E76D4688B06B4613F11002F9
:10DA400030D00C2142B10846042901DD1C4C5C6138
:10DA5000082801DD184898610B2926DD0C243AB10D
:10DA60000321397000217970B970F9703868186134
:10DA700000216FF300016FF341016FF382016FF337
:10DA8000C501012363F38811C4F30A0464F353212D
:10DA90006FF31F510023064801F0C8F9AD466FF03F
:10DAA000150549E76FF00041CCE76FF01B04D6E79E
:10DAB000F0DF0500E8ED050004EF050010EE0500BD
:10DAC00034EE050090EE0500ACEE0500C4EE050056
:10DAD0006D4688B06B4613F1100230D00C2142B174
:10DAE0000846042901DD404C5C61082801DD3F48FF
:10DAF00098610B2926DD0C243AB1032139700021ED
:10DB00007970B970F9703868186100216FF30001FD
:10DB10006FF341016FF382016FF3C501012363F3DA
:10DB20008811C4F30A0464F353216FF31F510023D7
:10DB30002F4801F07BF9AD466FF01505FCE66FF05C
:10DB40000041CCE76FF01B04D6E76D4688B06B460A
:10DB500013F1100230D00C2142B10846042901DD36
:10DB6000244C5C61082801DD204898610B2926DDE2
:10DB70000C243AB10321397000217970B970F97021
:10DB80003868186100216FF300016FF341016FF3F2
:10DB900082016FF3C501012363F38811C4F30A0303
:10DBA00063F353216FF31F510023114801F03EF935
:10DBB000AD466FF01505BFE66FF00041CCE76FF0A2
:10DBC0001B04D6E76FF00041EFE56FF01B0605E69A
:10DBD0006FF000402EE66FF01B0C48E66FF000403F
:10DBE00071E66FF01B0487E650EE050004EF0500B8
:10DBF000F0DF050068EE05002DE9F04F87B000AFBB
:10DC00007A6090F810B0BBF1000F25D004460E46A4
:10DC10009946C36A1B68D9B201295AD901F1070A8A
:10DC20004A420AEA020A012956D9DBB209EB030289
:10DC3000013A5B4213403B60A389A3EB8A034B4547
:10DC4000C0F0C480B9F1000F03D07B68002B00F056
:10DC5000C0806368FB6046E06D4688B06B4613F198
:10DC6000100230D00C2142B10846042901DD5A4C83
:10DC70005C61082801DD594898610B2926DD0C24D8
:10DC80003AB10321397200217972B972F972B86818
:10DC9000186100216FF300016FF341016FF38201FE
:10DCA0006FF3C501012363F38811C4F30A0464F31D
:10DCB00053216FF31F510023494801F0B7F8AD46D7
:10DCC0006FF00C0579E06FF00041CCE76FF01B04BA
